:02000002B0004C
:1040000000400B0028610B00000006000D000502B7
:084010000401800C0000000017
:04401800085E0B0033
:10401C0009480A49884208B505D0094A824202D0AB
:10402C00121A01F039FE0748074A0021121A01F052
:10403C0041FE014808BD00BF04E6032094600B005C
:10404C0070E6032070E60320EDE7032070B5074E01
:10405C00074C01F04FF8A41BA4080025AC4200D17A
:10406C0070BD56F8043B98470135F7E764600B00C8
:10407C0088600B0000F014B808B500F01FF8BDE81C
:10408C00084000F0EFBF00F05BBB00F061BB0078B4
:10409C00B0FA80F0400970470123037070470000AC
:1040AC0008B500F097FF4FF4165100F087FFBDE8FC
:1040BC000840014800F0E4B870E6032030B585B044
:1040CC001B223449344C01A800F04AFB00F082FF5B
:1040DC0001A900F08BFD00F07DFF304900F086FD5A
:1040EC0000F078FF012205460021204600F0DAF8A6
:1040FC000221284600F07EFE00F06CFF284900F0FB
:10410C0088FD00F067FF274900F070FD00F062FFAA
:10411C00012205460621204600F0C4F8022128465B
:10412C0000F068FE00F056FF1F4900F072FD00F031
:10413C0051FF1E4900F05AFD00F04CFF01220546CC
:10414C000C21204600F0AEF80221284600F052FE69
:10415C0000F040FF164900F05CFD00F03BFF1549F4
:10416C0000F044FD00F036FF0122054646212046B2
:10417C0000F098F80221284600F03CFE00F02AFFDF
:10418C000D4900F046FD4FF47A7000F001FB05B0CC
:10419C0030BD00BF1C5E0B0070E60320245E0B00DC
:1041AC00305E0B00325E0B003E5E0B00405E0B007F
:1041BC004C5E0B004E5E0B005A5E0B000348002356
:1041CC0002224FF4165100F00BB800BF70E603202A
:1041DC00704710B520210446FFF757FF204610BD4D
:1041EC0030B5074D05604FF4480505614FF4FA757D
:1041FC0085820025C0E90655C0E90212436030BD36
:10420C00685E0B0030B50A444FF6FF704AF20104A9
:10421C0091420ED011F8013B5840082300F00105E3
:10422C0040080DB1604080B2013B13F0FF03F5D1A3
:10423C00EEE730BD10B50C4600F0F6F8044401F082
:10424C004BF803681B69984770B101F045F8036897
:10425C001B69984720B101F03FF803685B699847E8
:10426C00012000F095FAEAE700F0DEF88442ECD287
:10427C0010BDC068022802D080B200F0BCBF7047ED
:10428C0010B5044601F028F8D4E9012100F040FEF5
:10429C00A089012100F09EFF20460021BDE81040BE
:1042AC00FFF7E7BFF0B585B004238DF80530514B0F
:1042BC008DF804200026022700938DF807100B0AB6
:1042CC00154601A906228DF80630044602968DF893
:1042DC000C608DF80970FFF795FF8DF80A00000A45
:1042EC0031468DF80B002046FFF7A4FF0121204634
:1042FC00FFF7BFFF384600F04BFA00F0EDFF036804
:10430C00082201A9DB68984700F0E6FF0368DB6927
:10431C00984731462046FFF7ACFF00F085F8638ADA
:10432C001E1800F0D9FF03681B699847082857DC52
:10433C0000F07AF8B04247D800F05EF8F1E701AF30
:10434C00002600F0C9FF03685B6998470136092E07
:10435C0007F8010BF5D19DF80430AB4236D19DF82E
:10436C000530042B32D19DF80630042B2ED10722B8
:10437C0001A92046FFF746FFBDF80B30834227D139
:10438C009DF807308DF803309DF808308DF8023019
:10439C009DF809308DF801309DF80A308DF8003009
:1043AC000025A18A2046FFF745FF00F095FF036822
:1043BC001B69984770B97DB1A36925820133A3614C
:1043CC009DED000A05B0F0BD0425EAE70225E8E7FB
:1043DC000125E6E70425EFE7E3690133E361EFE745
:1043EC0000F07AFF03681B6998470828A7DC0325AF
:1043FC00D7E700BF0000C07F08B5024B1B68DB6825
:10440C00019308BD4802030008B5024B1B685B6CA6
:10441C00019308BD4802030008B5024B1B685B689A
:10442C00019308BD1802030008B5024B1B685B69B9
:10443C00019308BD1802030008B5024B1B689B686A
:10444C00019308BD2C02030008B5024B1B68DB6806
:10445C00019308BD2C02030008B5024B1B681B69B5
:10446C00019308BD2C02030008B5024B1B681B6AA4
:10447C00019308BD2802030008B5024B1B685B6A58
:10448C00019308BD2802030008B5024B1B689B6A08
:10449C00019308BD2802030008B5024B1B68DB6AB8
:1044AC00019308BD2802030008B5024B1B681B6B67
:1044BC00019308BD2802030008B5024B1B685B6B17
:1044CC00019308BD2802030008B5024B1B681B6C46
:1044DC00019308BD2802030008B5024B1B685B69F9
:1044EC00019308BD6402030008B5024B1B689B686E
:1044FC00019308BD6802030008B5024B1B68DB681A
:10450C00019308BD6802030008B5024B1B68DB6908
:10451C00019308BD3002030008B5024B1B681B6AEF
:10452C00019308BD3002030008B5024B1B68DB6821
:10453C00019308BD3C02030008B5024B1B681B69C4
:10454C00019308BD3C02030008B5024B1B685B6974
:10455C00019308BD3C02030008B5024B1B689B6924
:10456C00019308BD3C02030008B5024B1B68DB69D4
:10457C00019308BD3C02030008B5024B1B681B6A83
:10458C00019308BD3C02030008B5024B1B689B6AF3
:10459C00019308BD3C02030008B5024B1B68DB6AA3
:1045AC00019308BD3C02030008B5024B1B681B6C51
:1045BC00019308BD3C02030008B5024B1B681B6845
:1045CC00019308BD4C02030008B5024B1B685B68E5
:1045DC00019308BD4C02030008B5024B1B681B6914
:1045EC00019308BD4C02030008B5024B1B685B69C4
:1045FC00019308BD4C02030008B5024B1B689B6974
:10460C00019308BD4C02030008B5024B1B68DB6923
:10461C00019308BD4C02030008B5024B1B681B6AD2
:10462C00019308BD4C02030008B5024B1B685B6884
:10463C00019308BD2002030008B5024B1B685B699F
:10464C00019308BD2002030008B5034B1B68D3F887
:10465C008830019308BD00002002030008B5034B0D
:10466C001B68D3F89430019308BD000020020300AE
:10467C0008B5024B1B68DB6B019308BD44020300B9
:10468C0008B5024B1B685B68019308BD4002030030
:10469C0008B5024B1B689B68019308BD40020300E0
:1046AC0008B5024B1B68DB68019308BD4002030090
:1046BC0008B5024B1B681B69019308BD400203003F
:1046CC0008B5024B1B685B69019308BD40020300EF
:1046DC0008B5024B1B689B69019308BD400203009F
:1046EC0008B5024B1B68DB69019308BD400203004F
:1046FC0008B5024B1B681B6A019308BD40020300FE
:10470C0008B5024B1B681B6B019308BD40020300EC
:10471C0008B5024B1B685B6B019308BD400203009C
:10472C0008B5024B1B681B6C019308BD40020300CB
:10473C0008B5024B1B685B6C019308BD400203007B
:10474C0008B5024B1B681B68019308BD1C020300D3
:10475C0008B5024B1B685B68019308BD1C02030083
:10476C0008B5024B1B68DB68019308BD1C020300F3
:10477C0008B5024B1B681B6C019308BD1C0203009F
:10478C0008B5024B1B685B6C019308BD1C0203004F
:10479C000021FFF751BF0000024800230360FFF720
:1047AC0033BE00BF90E60320002240681146FFF79D
:1047BC007FBF002240681146FFF79ABF0022406875
:1047CC001146FFF7A5BF40680022FFF799BF40686C
:1047DC00002281F00101FFF783BF002340681A46D5
:1047EC001946FFF775BF002340681A461946FFF7B4
:1047FC0067BF002240681146FFF74ABF406800229D
:10480C000221FFF74DBF002340681A46FFF738BF5F
:10481C00084B10B5282422461846002101F04AFA0C
:10482C00054B04804FF0FF32426004225A60034A69
:10483C001A6010BD9CE6032094E60320785E0B0002
:10484C00002240681146FFF753BF00224068114612
:10485C00FFF75EBF40680022FFF752BF406800229E
:10486C0081F00101FFF73CBF002340681A4619464E
:10487C00FFF72EBF002340681A461946FFF720BFEA
:10488C00002240681146FFF713BF00224068114612
:10489C00FFF7FEBE406800220221FFF701BF002394
:1048AC0040681A46FFF7ECBE024B03225A60024ADC
:1048BC001A607047C4E60320B45E0B007047F8B56D
:1048CC00064615460C468F18BC4206D0336814F8C1
:1048DC00011B9B6830469847F6E72846F8BD007CDC
:1048EC000022FFF7C1BD007C0021FFF7C5BD007C95
:1048FC000021FFF7C9BD007C0021FFF7CDBD007C76
:10490C000021FFF7D1BD10B514210446FFF7BDFB04
:10491C00204610BD10B54FF47A73044608460021AA
:10492C00C4E90113034B236020741146FFF7CCFD3F
:10493C00204610BDF05E0B00704710B518210446E0
:10494C00FFF7A3FB204610BDF0B5037D062B8DB001
:10495C000E4600F104074FF0000412D000F10805D8
:10496C0015F8011D0A22304600F05DF9AF420444EF
:10497C0019D0002CF4D02E21304600F03BF9044421
:10498C00EEE72F236A4639460A208DF80040FFF7E0
:10499C00A3FD684601F0C4F933680246DB6869463A
:1049AC0030469847044620460DB0F0BD10B5054B77
:1049BC000446112240F8043B002101F07BF920460B
:1049CC0010BD00BF185F0B000346074A10B543F833
:1049DC00042B01F1100251F8044B43F8044B9142A3
:1049EC00F9D10A781A7010BD185F0B0010B59DF83C
:1049FC00084044EA032343EA024242EA01610423E9
:104A0C004160037510BD000007B5064B0360CB7801
:104A1C0000938B784A780978FFF7E8FF03B05DF8CC
:104A2C0004FB00BF185F0B00014B024A1A60704771
:104A3C00CCE60320245F0B00002340681A46FFF7E6
:104A4C001FBE406800220221FFF72ABE00224068E8
:104A5C001146FFF71DBE002240681146FFF728BE25
:104A6C00002340681A461946FFF72ABE0023406807
:104A7C001A461946FFF72CBE40680021FFF750BEBE
:104A8C0040680021FFF754BE4068002281F001010C
:104A9C00FFF726BE40680022FFF732BE00224068B6
:104AAC001146FFF735BE002240681146FFF720BEC5
:104ABC002DE9F04395B014460D460746FFF776FFF7
:104ACC0000211C220DA8009101F0F4F840230C9356
:104ADC0020466B460CAA0021FFF70EFD0446002869
:104AEC004BD1024601216868FFF7E2FD02218046A6
:104AFC0022466868FFF7DCFD009E81462146002EA9
:104B0C003BD0002939D17368022B03D00A2B11D06A
:104B1C00F669F4E7B8F1000FFAD0716906A8043110
:104B2C0007ADFFF771FF0FCD3C1D0FC42B68237031
:104B3C004146EDE7B9F1000FEAD07469102201A8E3
:104B4C0001F0B8F806238DF8143001AD04F1080318
:104B5C001834186859682A4603C20833A34215460C
:104B6C00F7D101A906A807ADFFF72EFF0FCD3C1D0D
:104B7C000FC42B6823704946CAE70098FFF7B4FCB2
:104B8C00384615B0BDE8F083024B034A1A60002288
:104B9C005A607047D0E60320305F0B00F8B506462C
:104BAC000D468F180024BD420CD0336815F8011B3C
:104BBC009B6830469847031E01DB1C44F3E7002C2E
:104BCC0008BF1C462046F8BD13B50446084659B12B
:104BDC00019101F0A5F823680199DB680246204693
:104BEC0002B0BDE81040184702B010BD08B5FFF781
:104BFC00EBFF08BD03689B68184738B50D210546C7
:104C0C00FFF7F8FF0A2104462846FFF7F3FF20447C
:104C1C0038BD38B50546FFF7D7FF04462846FFF7E1
:104C2C00ECFF204438BD30B58BB00023012A8DF841
:104C3C00243098BF0A2209AC0D46B1FBF2F101FBFE
:104C4C00125303F0FF03092B94BF30333733DBB21D
:104C5C00AA4204F8013DEFD92146FFF7B5FF0BB08E
:104C6C0030BD00002DE9F74F55EC104B06460F46B2
:104C7C0010EE102A10EE100A2B46294600F0A8FF61
:104C8C0040B153493046FFF79FFF8246504603B070
:104C9C00BDE8F08F25F000494E4B4FF0FF32204617
:104CAC00494600F095FF48B94A4B4FF0FF32204679
:104CBC00494600F06FFF08B94749E3E7474B4FF00F
:104CCC0060422046294600F079FF08B14449D9E7F3
:104CDC00444B4FF060422046294600F051FF00281B
:104CEC00F4D1002200232046294600F049FFD0B120
:104CFC002D213046FFF77EFF05F1004382461D460D
:104D0C003949DFF8EC904FF0000B00204FF0000811
:104D1C005FFA8BF39F4208D942464B4600F0E8FD00
:104D2C000BF1010BF4E78246EAE722462B4600F032
:104D3C00FFFA0D46044600F089FF804600F034FC73
:104D4C0002460B462046294600F0F0FA0A22044699
:104D5C000D4630464146FFF766FF8244002F95D042
:104D6C002249DFF88C903046FFF72EFF4FF00008F9
:104D7C008244002F8AD042464B462046294600F0FA
:104D8C008DFC04460D4600F039FFB0F1000B1CDA27
:104D9C002D213046FFF72EFFCBF1000103460A22EE
:104DAC0030460193FFF73FFF019B1844824458465D
:104DBC0000F00AFC02460B462046294600F0B6FAE3
:104DCC00013F04460D46FFB2D3E759460023E6E700
:104DDC00645F0B00FFFFEF7F685F0B00FFFFEF418D
:104DEC006C5F0B00FFFFEFC10000E03F705F0B003A
:104DFC000000244038B5044610EE100ACDB200F085
:104E0C00F5FB41EC100B29462046BDE83840FFF776
:104E1C0029BF0000014B00229A607047D8E603209E
:104E2C0010B5044608462170FFF76EFB0023636043
:104E3C00204610BD054B02221A60054B054A9A60AC
:104E4C000020C3E90000FFF7EFBB00BFF4E603202E
:104E5C00E8E603200000FFFF024B1A68024B1A60C1
:104E6C00704700BF04E60320F8E603207047417446
:104E7C00704708B5007CFFF787FB20EAE07008BD9F
:104E8C0008B5007CFFF758FB20EAE07008BD08B5B8
:104E9C00007CFFF761FB40EAE07008BD08B5007CC0
:104EAC00FFF752FB40EAE07008BD007CFFF75CBBEB
:104EBC0037B5457C04462DB1207C03B0BDE83040AD
:104ECC00FFF732BB007C0191FFF75EFB00280199D4
:104EDC00F2DC284603B030BD10B514210446FFF7B0
:104EEC00D4F8204610BD000010B54FF47A73044678
:104EFC00084611460022C4E90123044B2360012318
:104F0C0020746374FFF750FB204610BD985F0B00B4
:104F1C00007C0023FFF740BB41747047704770471B
:104F2C0008B50021007CFFF767FB40EAE07008BD84
:104F3C0008B50121007CFFF75FFB40EAE07008BD7B
:104F4C0008B5007CFFF750FB20EAE07008BD08B5FF
:104F5C00007CFFF741FB20EAE07008BD13B5044666
:104F6C00007C0191FFF740FB0028019901DC607C7B
:104F7C0020B1207CFFF748FB20EAE07002B010BDA6
:104F8C00007CFFF749BB10B514210446FFF77DF8F0
:104F9C00204610BD10B54FF47A7304460846002124
:104FAC00C4E90113044B236001232074637411467C
:104FBC00FFF702FB204610BDC85F0B00007C0022EF
:104FCC00FFF702BB10B514220446002100F072FE5C
:104FDC00204610BD10B50F4C88B003A8FFF7F2FFA8
:104FEC002178BFF35B8F11F001010FD120460191A5
:104FFC00FFF74DF8019948B103AA0748FFF7CAFF1C
:10500C002046FFF749F8054800F040FE024808B07A
:10501C0010BD00BFFCE6032000E70320294F0B0066
:10502C00014B1860704700BF08E6032008B50B4B16
:10503C0043B1FFF7CFFF03681B699847002801DDD8
:10504C00AFF30080064B43B100F046F903681B69CF
:10505C009847002801DDAFF3008008BD0000000078
:10506C000000000008B5FFF7E1FFFFF7DDF9014B89
:10507C00186008BD28E703200548064A064908B50C
:10508C00121A00F009FE054B054A1A6008BD00BF54
:10509C0000F4032004F4032090600B0000F40320C0
:1050AC001E1C279A07B5002300931A466FF0770150
:1050BC00FFF7D4FA03B05DF804FB000007B5438892
:1050CC000A2B08D0502B0BD1094B1B684BB103B0EA
:1050DC005DF804EB1847FFF7E5FF03B05DF804FB40
:1050EC00002300931A466FF07701FFF7B7FAF4E745
:1050FC0018E7032010B512480021FFF741FB114BB4
:10510C001A68114B9A42114B0CBF012200221A70E3
:10511C0001D0FFF7B1FFFFF77FF9044600F0D2FD95
:10512C000B4B13B12046AFF3008000210848FFF76A
:10513C009FFABDE8104007480021FFF785BA00BF71
:10514C002D500B0000F403201E1C279A14E703209B
:10515C0000000000C9500B00232813B502D9002011
:10516C0002B010BDA0F10B03022B1AD8174C2178FA
:10517C00BFF35B8F11F001010BD120460191FEF7BB
:10518C0086FF019928B11248FFF74AFE2046FEF728
:10519C0083FF0F4B1878FFF7BFF90028DFD10120F0
:1051AC00DEE7012809D800F057F80021007CFFF752
:1051BC0083F980F00100C0B2D2E709380128EED89B
:1051CC0000F08AF8007CFFF7D7F9F2E71CE7032020
:1051DC0020E70320232838B504460D460AD8FF29BA
:1051EC0008D0FFF7B9FF28B129462046BDE8384062
:1051FC00FFF722B938BD38B504460D46FFF724F940
:10520C00FF2810D0062804D84D2323FA00F0C3073A
:10521C0009D42046FFF7A0FF28B129462046BDE857
:10522C003840FFF719B938BD7047000038B5202554
:10523C00142304460360856005610649284600F086
:10524C006FF804496060284600F06AF8E060204678
:10525C0038BD00BFF05F0B0030B50E4D2978BFF3A1
:10526C005B8F11F0010487B011D12846FEF70FFFB8
:10527C0068B101A8FFF7DAFF01AA21460648FFF73B
:10528C0049FB2846FEF708FF044800F0FFFC0248E3
:10529C0007B030BD2CE7032030E7032035520B005C
:1052AC007047000038B5044614252A46002100F04A
:1052BC0001FD25804025074925812846258200F0DF
:1052CC002FF804496060284600F02AF8E060204678
:1052DC0038BD00BFF05F0B0030B50E4D2978BFF321
:1052EC005B8F11F0010487B011D12846FEF7CFFE79
:1052FC0068B101A8FFF7D6FF01AA21460648FFF7BF
:10530C00F3FD2846FEF7C8FE044800F0BFFC024837
:10531C0007B030BD44E7032048E70320AD520B0033
:10532C00FEF7B1BE81F0004102E000BF83F0004304
:10533C0030B54FEA41044FEA430594EA050F08BF24
:10534C0090EA020F1FBF54EA000C55EA020C7FEAE8
:10535C00645C7FEA655C00F0E2804FEA5454D4EB65
:10536C005555B8BF6D420CDD2C4480EA020281EA2F
:10537C00030382EA000083EA010180EA020281EA67
:10538C000303362D88BF30BD11F0004F4FEA0131B9
:10539C004FF4801C4CEA113102D0404261EB4101C8
:1053AC0013F0004F4FEA03334CEA133302D052424E
:1053BC0063EB430394EA050F00F0A780A4F101040A
:1053CC00D5F1200E0DDB02FA0EFC22FA05F2801844
:1053DC0041F1000103FA0EF2801843FA05F359412A
:1053EC000EE0A5F120050EF1200E012A03FA0EFCA9
:1053FC0028BF4CF0020C43FA05F3C01851EBE371D3
:10540C0001F0004507D54FF0000EDCF1000C7EEBEF
:10541C0000006EEB0101B1F5801F1BD3B1F5001F2D
:10542C000CD349085FEA30004FEA3C0C04F101044C
:10543C004FEA445212F5800F80F09A80BCF1004F75
:10544C0008BF5FEA500C50F1000041EB045141EAF7
:10545C00050130BD5FEA4C0C404141EB0101013CC0
:10546C0028BFB1F5801FE9D291F0000F04BF0146AF
:10547C000020B1FA81F308BF2033A3F10B03B3F181
:10548C0020020CDA0C3208DD02F1140CC2F10C0211
:10549C0001FA0CF021FA02F10CE002F11402D8BF6F
:1054AC00C2F1200C01FA02F120FA0CFCDCBF41EA3B
:1054BC000C019040E41AA2BF01EB0451294330BD0A
:1054CC006FEA04041F3C1CDA0C340EDC04F11404E7
:1054DC00C4F1200220FA04F001FA02F340EA0300BE
:1054EC0021FA04F345EA030130BDC4F10C04C4F104
:1054FC00200220FA02F001FA04F340EA03002946E4
:10550C0030BD21FA04F0294630BD94F0000F83F42D
:10551C00801306BF81F480110134013D4EE77FEA10
:10552C00645C18BF7FEA655C29D094EA050F08BF5C
:10553C0090EA020F05D054EA000C04BF194610463D
:10554C0030BD91EA030F1EBF0021002030BD5FEA81
:10555C00545C05D14000494128BF41F0004130BDA9
:10556C0014F580043CBF01F5801130BD01F00045FD
:10557C0045F0FE4141F470014FF0000030BD7FEA70
:10558C00645C1ABF194610467FEA655C1CBF0B466B
:10559C00024650EA013406BF52EA033591EA030F82
:1055AC0041F4002130BD00BF90F0000F04BF00217A
:1055BC00704730B54FF4806404F132044FF00005AD
:1055CC004FF0000150E700BF90F0000F04BF002126
:1055DC00704730B54FF4806404F1320410F000458C
:1055EC0048BF40424FF000013EE700BF42004FEA87
:1055FC00E2014FEA31014FEA02701FBF12F07F4304
:10560C0093F07F4F81F06051704732F07F4208BFBA
:10561C00704793F07F4F04BF41F40021704730B5C1
:10562C004FF4607401F0004521F000411CE700BF0D
:10563C0050EA010208BF704730B54FF000050AE090
:10564C0050EA010208BF704730B511F0004502D591
:10565C00404261EB41014FF4806404F132045FEA93
:10566C00915C3FF4D8AE4FF003025FEADC0C18BF3C
:10567C0003325FEADC0C18BF033202EBDC02C2F12E
:10568C00200300FA03FC20FA02F001FA03FE40EAC0
:10569C000E0021FA02F11444BDE600BF70B54FF0C4
:1056AC00FF0C4CF4E06C1CEA11541DBF1CEA1355A2
:1056BC0094EA0C0F95EA0C0F00F0DEF82C4481EA0A
:1056CC00030621EA4C5123EA4C5350EA013518BF2A
:1056DC0052EA033541F4801143F4801338D0A0FB17
:1056EC0002CE4FF00005E1FB02E506F00042E0FBC4
:1056FC0003E54FF00006E1FB03569CF0000F18BFCA
:10570C004EF0010EA4F1FF04B6F5007F64F5407471
:10571C0004D25FEA4E0E6D4146EB060642EAC62104
:10572C0041EA55514FEAC52040EA5E504FEACE2E71
:10573C00B4F1FD0C88BFBCF5E06F1ED8BEF1004F74
:10574C0008BF5FEA500E50F1000041EB045170BDF0
:10575C0006F0004646EA010140EA020081EA030134
:10576C00B4EB5C04C2BFD4EB0C0541EA045170BD30
:10577C0041F480114FF0000E013C00F3AB8014F1AA
:10578C00360FDEBF002001F0004170BDC4F10004F3
:10579C00203C35DA0C341BDC04F11404C4F1200574
:1057AC0000FA05F320FA04F001FA05F240EA0200CF
:1057BC0001F0004221F0004110EBD37021FA04F605
:1057CC0042EB06015EEA430E08BF20EAD37070BDBF
:1057DC00C4F10C04C4F1200500FA04F320FA05F01E
:1057EC0001FA04F240EA020001F0004110EBD37020
:1057FC0041F100015EEA430E08BF20EAD37070BD90
:10580C00C4F1200500FA05F24EEA020E20FA04F368
:10581C0001FA05F243EA020321FA04F001F0004117
:10582C0021FA04F220EA020000EBD3705EEA430E88
:10583C0008BF20EAD37070BD94F0000F0FD101F0B7
:10584C000046400041EB010111F4801F08BF013CF0
:10585C00F7D041EA060195F0000F18BF704703F02E
:10586C000046520043EB030313F4801F08BF013DB5
:10587C00F7D043EA0603704794EA0C0F0CEA135571
:10588C0018BF95EA0C0F0CD050EA410618BF52EA2B
:10589C004306D1D181EA030101F000414FF0000031
:1058AC0070BD50EA410606BF1046194652EA43063F
:1058BC0019D094EA0C0F02D150EA013613D195EAB3
:1058CC000C0F05D152EA03361CBF104619460AD1FB
:1058DC0081EA030101F0004141F0FE4141F4700105
:1058EC004FF0000070BD41F0FE4141F4780170BDF5
:1058FC0070B54FF0FF0C4CF4E06C1CEA11541DBF5A
:10590C001CEA135594EA0C0F95EA0C0F00F0A7F85B
:10591C00A4EB050481EA030E52EA03354FEA013188
:10592C0000F088804FEA03334FF0805545EA13139B
:10593C0043EA12634FEA022245EA111545EA106563
:10594C004FEA00260EF000419D4208BF964244F1FA
:10595C00FD0404F5407402D25B084FEA3202B61A19
:10596C0065EB03055B084FEA32024FF480104FF4ED
:10597C00002CB6EB020E75EB030E22BFB61A754661
:10598C0040EA0C005B084FEA3202B6EB020E75EBF4
:10599C00030E22BFB61A754640EA5C005B084FEA5C
:1059AC003202B6EB020E75EB030E22BFB61A754629
:1059BC0040EA9C005B084FEA3202B6EB020E75EB34
:1059CC00030E22BFB61A754640EADC0055EA060EF5
:1059DC0018D04FEA051545EA16754FEA06164FEA38
:1059EC00C30343EA52734FEAC2025FEA1C1CC0D1E4
:1059FC0011F4801F0BD141EA00014FF000004FF071
:105A0C00004CB6E711F4801F04BF01430020B4F131
:105A1C00FD0C88BFBCF5E06F3FF6AFAEB5EB030CE9
:105A2C0004BFB6EB020C5FEA500C50F1000041EBE6
:105A3C00045170BD0EF0004E4EEA113114EB5C04B3
:105A4C00C2BFD4EB0C0541EA045170BD41F4801186
:105A5C004FF0000E013C90E645EA060E8DE60CEA8E
:105A6C00135594EA0C0F08BF95EA0C0F3FF43BAFAB
:105A7C0094EA0C0F0AD150EA01347FF434AF95EA62
:105A8C000C0F7FF425AF104619462CE795EA0C0F46
:105A9C0006D152EA03353FF4FDAE1046194622E713
:105AAC0050EA410618BF52EA43067FF4C5AE50EAED
:105ABC0041047FF40DAF52EA43057FF4EBAE12E7DD
:105ACC004FF0FF3C06E000BF4FF0010C02E000BFBE
:105ADC004FF0010C4DF804CD4FEA410C7FEA6C5CA1
:105AEC004FEA430C18BF7FEA6C5C1BD001B050EA44
:105AFC00410C0CBF52EA430C91EA030F02BF90EA2F
:105B0C00020F0020704710F1000F91EA030F58BFED
:105B1C00994208BF90422CBFD8176FEAE37040F04F
:105B2C00010070474FEA410C7FEA6C5C02D150EAED
:105B3C00013C07D14FEA430C7FEA6C5CD6D152EAA8
:105B4C00033CD3D05DF8040B704700BF844610466D
:105B5C0062468C461946634600E000BF01B5FFF76C
:105B6C00B7FF002848BF10F1000F01BD4DF808ED3C
:105B7C00FFF7F4FF0CBF012000205DF808FB00BF0D
:105B8C004DF808EDFFF7EAFF34BF012000205DF867
:105B9C0008FB00BF4DF808EDFFF7E0FF94BF0120B4
:105BAC0000205DF808FB00BF4DF808EDFFF7CEFFB5
:105BBC0094BF012000205DF808FB00BF4DF808EDF4
:105BCC00FFF7C4FF34BF012000205DF808FB00BFC5
:105BDC004FEA410C7FEA6C5C02D150EA013C0AD1DD
:105BEC004FEA430C7FEA6C5C02D152EA033C02D1CF
:105BFC004FF0000070474FF0010070474FEA410230
:105C0C0012F5001215D211D56FF47873B3EB625202
:105C1C0012D94FEAC12343F0004343EA505311F029
:105C2C00004F23FA02F018BF404270474FF00000BB
:105C3C00704750EA013005D111F0004008BF6FF0F9
:105C4C00004070474FF00000704700BF4A0011D26F
:105C5C0012F5001211D20DD56FF47873B3EB6252BA
:105C6C000ED44FEAC12343F0004343EA505323FAC6
:105C7C0002F070474FF00000704750EA013002D13B
:105C8C004FF0FF3070474FF0000070470023014683
:105C9C001A46184600F04CB80A44914200F1FF3302
:105CAC0000D1704710B511F8014B03F8014F914228
:105CBC00F9D110BD02440346934200D1704703F85A
:105CCC00011BF9E738B5104B1D68AB6B0446B3B933
:105CDC001820FEF735FD0246A86320B90B4B0C4883
:105CEC004221FEF745FD0B490B4BC0E900130B4B52
:105CFC0083600B23838100210120C2E90401AB6B7B
:105D0C0000221C615A6138BD08E60320F15F0B00CC
:105D1C0008600B000E33CDAB34126DE6ECDE0500E3
:105D2C00034613F8012B002AFBD1181A01387047CF
:105D3C002DE9F843DFF8B8800646D8F800001F4676
:105D4C000D46914600F056F8254B1C6834B9254C8D
:105D5C001C60254B13B11B68C4F8883063681F2B7B
:105D6C0007DDD8F8000000F047F84FF0FF30BDE831
:105D7C00F8834EB3D4F8880088B91C4B23B9D8F8F3
:105D8C00000000F038F8F0E74FF48470FEF7D8FC10
:105D9C000028F4D00023C0E94033C4F888006368BD
:105DAC0040F8239001229A4000EB8301D0F8003197
:105DBC001343C0F80031022EC1F8807002BFD0F836
:105DCC0004311343C0F804316368D8F800005A1C3E
:105DDC000233626044F8235000F00EF80020C6E74E
:105DEC00E8E703205CE70320000000004D470B00B0
:105DFC006CE6032070477047704700001D400B0095
:105E0C0059400B0081400B0085400B000000000046
:105E1C0025635B313B304800566F6C746167653AA3
:105E2C0020202000560043757272656E743A202053
:105E3C0020004100506F7765723A2020202020000E
:105E4C0057004672657175656E63793A2000487A21
:105E5C00000000000000000000000000DD410B000D
:105E6C00DF410B00000000000000000013480B0095
:105E7C0009480B00FF470B00B5470B00F3470B001D
:105E8C00E7470B00854A0B008D4A0B00DB470B00E4
:105E9C00D3470B00C9470B00BF470B00BD4A0B0093
:105EAC000000000000000000AB480B00A1480B00F4
:105EBC0097480B008D480B0081480B0075480B0070
:105ECC00854A0B008D4A0B0069480B0061480B009A
:105EDC0057480B004D480B00BD4A0B00000000005A
:105EEC0000000000C9480B0013490B00EB480B00E5
:105EFC00CB480B00F3480B00FB480B0003490B008D
:105F0C000B490B00000000000000000055490B007D
:105F1C0045490B0047490B00617070000000000000
:105F2C0000000000454A0B004F4A0B00594A0B0079
:105F3C00634A0B006D4A0B00794A0B00854A0B0033
:105F4C008D4A0B00954A0B00A14A0B00A94A0B0085
:105F5C00B34A0B00BD4A0B006E616E00696E6600A1
:105F6C006F7666002E0025592D256D2D2564542540
:105F7C00483A254D3A2553257A0061736374696D4F
:105F8C00650000000000000000000000794E0B00CE
:105F9C00E54E0B00BD4E0B00A94B0B008D4E0B00BC
:105FAC00A94E0B009B4E0B00B74E0B007B4E0B000B
:105FBC007F4E0B0000000000000000002B4F0B0078
:105FCC00934F0B00694F0B00A94B0B005B4F0B0061
:105FDC002D4F0B003D4F0B008D4F0B004D4F0B0009
:105FEC00254F0B00005245454E54206D616C6C6F73
:105FFC006320737563636565646564002F746D70ED
:10600C002F6A656E6B696E732D4743432D31302DAE
:10601C00706970656C696E652D34385F3230323062
:10602C00313132345F313630363138303633392F06
:10603C007372632F6E65776C69622F6E65776C690E
:10604C00622F6C6962632F7374646C69622F726166
:10605C006E642E6300000000C9410B00A5470B00C5
:10606C001D480B00B5480B00354A0B00954B0B0037
:10607C00214E0B00414E0B00654E0B000000000042
:04608C000000000010
:04609000000000000C
:10609400865F0B000CE603200000000000000000F7
:1060A40000000000000000000000000000000000EC
:1060B40000000000000000000000000000000000DC
:1060C40000000000000000000000000000000000CC
:1060D40000000000000000000000000000000000BC
:1060E40000000000000000000000000000000000AC
:0C60F4000000000000000000ECE70320AA
:10610000FFFFFFFF00000102030405060708090A5C
:106110000B0C0D0E0F101112131415161718191A57
:086120001B1C1D1E1F2028009E
:04612800785634125F
:04000003B000401CED
:00000001FF
