:02000002D0002C
:1040000000400D0058600D00000006000D00050185
:0840100004019A080000000001
:04401800A85D0D0092
:10401C0009480A49884208B505D0094A824202D0AB
:10402C00121A01F013FE0748074A0021121A01F078
:10403C001BFE014808BD00BFF4E40320C45F0D0063
:10404C0060E5032060E50320EDE7032070B5074E23
:10405C00074C01F065F8A41BA4080025A54200D16B
:10406C0070BD56F8043B98470135F7E7945F0D0097
:10407C00B85F0D0000F026B908B500F031F9BDE8C5
:10408C00084001F005B800F059BB00F05FBB0078A8
:10409C00B0FA80F0400970470123037070477047F5
:1040AC0010B52021044601F013F9204610BD000084
:1040BC0030B5074D05604FF4480505614FF4FA75AE
:1040CC0085820025C0E90655C0E90212436030BD67
:1040DC00C45D0D0030B50A444FF6FF704AF201047E
:1040EC0091420ED011F8013B5840082300F0010515
:1040FC0040080DB1604080B2013B13F0FF03F5D1D5
:10410C00EEE730BD10B50C4600F08CF9044400F01D
:10411C00F3FE03681B69984770B100F0EDFE03686D
:10412C001B69984720B100F0E7FE03685B6998476C
:10413C00012000F023FBEAE700F074F98442ECD292
:10414C0010BDC068022802D080B201F06AB8704776
:10415C0010B5044600F0D0FED4E9012100F0C8FEF1
:10416C00E068022803D0012180B201F049F8204612
:10417C000021BDE81040FFF7E4BF0000F0B585B0AA
:10418C00042349BA00268DF8053002274C4B8DF8D4
:10419C000420ADF80610154601A90622009304462A
:1041AC0002968DF80C608DF80970FFF793FF31467D
:1041BC00ADF80A002046FFF7A5FF01212046FFF7C6
:1041CC00C0FF384600F0DAFA00F096FE03680822C9
:1041DC0001A9DB68984700F08FFE0368DB699847FC
:1041EC0031462046FFF7ADFF00F01CF9638A1E181C
:1041FC0000F082FE03681B699847082857DC00F022
:10420C0011F9B04247D800F0F5F8F1E701AF0026FC
:10421C0000F072FE03685B6998470136092E07F8B7
:10422C00010BF5D19DF80430AB4236D19DF8053029
:10423C00042B32D19DF80630042B2ED1072201A974
:10424C002046FFF747FFBDF80B30834227D19DF87E
:10425C0007308DF803309DF808308DF802309DF84A
:10426C0009308DF801309DF80A308DF800300025AA
:10427C00A18A2046FFF746FF00F03EFE03681B694B
:10428C00984770B97DB1A36925820133A3619DED77
:10429C00000A05B0F0BD0425EAE70225E8E7012590
:1042AC00E6E70425EFE7E3690133E361EFE700F0AC
:1042BC0023FE03681B6998470828A7DC0325D7E76A
:1042CC000000C07F08B500F09BFE4FF4165100F0C3
:1042DC008BFEBDE808400148FFF73ABF60E50320BC
:1042EC0030B585B01B223449344C01A800F036FAA5
:1042FC0000F086FE01A900F067FC00F081FE304959
:10430C0000F062FC00F07CFE0122054600212046F4
:10431C00FFF734FF0221284600F05AFD00F070FE32
:10432C00284900F064FC00F06BFE274900F04CFCBF
:10433C0000F066FE0122054606212046FFF71EFF0F
:10434C000221284600F044FD00F05AFE1F4900F0FF
:10435C004EFC00F055FE1E4900F036FC00F050FEFD
:10436C00012205460C212046FFF708FF02212846B2
:10437C0000F02EFD00F044FE164900F038FC00F071
:10438C003FFE154900F020FC00F03AFE01220546E4
:10439C0046212046FFF7F2FE0221284600F018FDC8
:1043AC0000F02EFE0D4900F022FC4FF47A7000F064
:1043BC00E5F905B030BD00BFCC5D0D0060E5032014
:1043CC00D45D0D00E05D0D00E25D0D00EE5D0D00B5
:1043DC00F05D0D00FC5D0D00FE5D0D000A5E0D0034
:1043EC000348002302224FF4E131FFF761BE00BF06
:1043FC0060E5032008B5024B1B68DB68019308BD20
:10440C004802030008B5024B1B685B6C019308BDA6
:10441C004802030008B5024B1B685B68019308BD9A
:10442C001802030008B5024B1B685B69019308BDB9
:10443C001802030008B5024B1B689B68019308BD6A
:10444C002C02030008B5024B1B68DB68019308BD06
:10445C002C02030008B5024B1B681B69019308BDB5
:10446C002C02030008B5024B1B681B6A019308BDA4
:10447C002802030008B5024B1B685B6A019308BD58
:10448C002802030008B5024B1B689B6A019308BD08
:10449C002802030008B5024B1B68DB6A019308BDB8
:1044AC002802030008B5024B1B681B6B019308BD67
:1044BC002802030008B5024B1B685B6B019308BD17
:1044CC002802030008B5024B1B681B6C019308BD46
:1044DC002802030008B5024B1B685B69019308BDF9
:1044EC006402030008B5024B1B689B68019308BD6E
:1044FC006802030008B5024B1B68DB68019308BD1A
:10450C006802030008B5024B1B68DB69019308BD08
:10451C003002030008B5024B1B681B6A019308BDEF
:10452C003002030008B5024B1B681B68019308BDE1
:10453C003C02030008B5024B1B68DB68019308BD05
:10454C003C02030008B5024B1B681B69019308BDB4
:10455C003C02030008B5024B1B685B69019308BD64
:10456C003C02030008B5024B1B689B69019308BD14
:10457C003C02030008B5024B1B68DB69019308BDC4
:10458C003C02030008B5024B1B681B6A019308BD73
:10459C003C02030008B5024B1B689B6A019308BDE3
:1045AC003C02030008B5024B1B68DB6A019308BD93
:1045BC003C02030008B5024B1B681B68019308BD45
:1045CC004C02030008B5024B1B685B68019308BDE5
:1045DC004C02030008B5024B1B681B69019308BD14
:1045EC004C02030008B5024B1B685B69019308BDC4
:1045FC004C02030008B5024B1B689B69019308BD74
:10460C004C02030008B5024B1B68DB69019308BD23
:10461C004C02030008B5024B1B681B6A019308BDD2
:10462C004C02030008B5024B1B685B68019308BD84
:10463C002002030008B5024B1B685B69019308BD9F
:10464C002002030008B5034B1B68D3F88830019394
:10465C0008BD00002002030008B5034B1B68D3F80B
:10466C009430019308BD00002002030008B5024BF2
:10467C001B68DB6B019308BD4402030008B5024BB9
:10468C001B685B68019308BD4002030008B5024B30
:10469C001B689B68019308BD4002030008B5024BE0
:1046AC001B68DB68019308BD4002030008B5024B90
:1046BC001B681B69019308BD4002030008B5024B3F
:1046CC001B685B69019308BD4002030008B5024BEF
:1046DC001B689B69019308BD4002030008B5024B9F
:1046EC001B68DB69019308BD4002030008B5024B4F
:1046FC001B681B6A019308BD4002030008B5024BFE
:10470C001B681B6B019308BD4002030008B5024BEC
:10471C001B685B6B019308BD4002030008B5024B9C
:10472C001B681B6C019308BD4002030008B5024BCB
:10473C001B685B6C019308BD4002030008B5024B7B
:10474C001B681B68019308BD1C02030008B5024BD3
:10475C001B685B68019308BD1C02030008B5024B83
:10476C001B68DB68019308BD1C02030008B5024BF3
:10477C001B685B6C019308BD1C0203000021FFF752
:10478C0059BF0000024800230360FFF73BBE00BF87
:10479C0080E50320002240681146FFF787BF002206
:1047AC0040681146FFF7A2BF002240681146FFF790
:1047BC00ADBF40680022FFF7A1BF4068002281F026
:1047CC000101FFF78BBF002340681A461946FFF71B
:1047DC007DBF002340681A461946FFF76FBF0022C1
:1047EC0040681146FFF752BF406800220221FFF7D4
:1047FC0055BF002340681A46FFF740BF084B10B561
:10480C00282422461846002101F02EFA054B04807C
:10481C004FF0FF32426004225A60034A1A6010BD06
:10482C008CE5032084E50320185E0D00002240680F
:10483C001146FFF75BBF002240681146FFF766BFC9
:10484C0040680022FFF75ABF4068002281F0010146
:10485C00FFF744BF002340681A461946FFF736BFDE
:10486C00002340681A461946FFF728BF002240680B
:10487C001146FFF71BBF002240681146FFF706BF29
:10488C00406800220221FFF709BF002340681A4646
:10489C00FFF7F4BE024B03225A60024A1A607047BB
:1048AC00B4E50320545E0D007047F8B50646154676
:1048BC000C468F18BC4206D0336814F8011B9B6859
:1048CC0030469847F6E72846F8BD007C0022FFF7F3
:1048DC00C9BD007C0021FFF7CDBD007C0021FFF796
:1048EC00D1BD007C0021FFF7D5BD007C0021FFF776
:1048FC00D9BD10B51421044600F0EAFC204610BDC9
:10490C0010B54FF47A73044608460021C4E901132C
:10491C00034B236020741146FFF7D4FD204610BDD5
:10492C00905E0D00704710B51821044600F0D0FCC5
:10493C00204610BDF0B5037D062B8DB00E4600F160
:10494C0004074FF0000412D000F1080515F8011D02
:10495C000A22304600F055F9AF42044419D0002C1D
:10496C00F4D02E21304600F033F90444EEE72F2327
:10497C006A4639460A208DF80040FFF7ABFD6846C1
:10498C0001F09EF933680246DB6869463046984769
:10499C00044620460DB0F0BD10B5054B044611225F
:1049AC0040F8043B002101F05FF9204610BD00BF28
:1049BC00B85E0D000346074A10B543F8042B01F10D
:1049CC00100251F8044B43F8044B9142F9D10A7888
:1049DC001A7010BDB85E0D0010B59DF8084044EA81
:1049EC00032343EA024242EA016104234160037556
:1049FC0010BD13B5CB7800938B784A780978FFF704
:104A0C00EBFF02B010BD0000014B024A1A60704768
:104A1C00BCE50320C45E0D00002340681A46FFF776
:104A2C002DBE406800220221FFF738BE00224068EC
:104A3C001146FFF72BBE002240681146FFF736BE29
:104A4C00002340681A461946FFF738BE0023406819
:104A5C001A461946FFF73ABE40680021FFF75EBEC2
:104A6C0040680021FFF762BE4068002281F001011E
:104A7C00FFF734BE40680022FFF740BE00224068BA
:104A8C001146FFF743BE002240681146FFF72EBEC9
:104A9C002DE9F043002495B016460D460746FFF766
:104AAC007BFF214618220EA8009401F0DDF840236C
:104ABC00CDE90C3421466B460CAA3046FFF71AFDA3
:104ACC000446002846D1024601216868FFF7EEFD36
:104ADC000221804622466868FFF7E8FD009E814669
:104AEC002146002E36D0002934D17368022B03D016
:104AFC000A2B0BD0F669F4E7B8F1000F04D07169FA
:104B0C0038460431FFF775FF4146F3E7B9F1000F62
:104B1C0001D14946EEE77469102201A801F0A4F80E
:104B2C0006238DF8143001AD04F10803183418680D
:104B3C0059682A4603C20833A3421546F7D101A986
:104B4C0006A807ADFFF736FF0FCD3C1D0FC42B6831
:104B5C002370DEE70098FFF7C5FC384615B0BDE8BA
:104B6C00F0830000024B034A1A6000225A6070471F
:104B7C00C0E50320D05E0D00F8B506460D468F1833
:104B8C000024BD420CD0336815F8011B9B683046DD
:104B9C009847031E01DB1C44F3E7002C08BF1C469E
:104BAC002046F8BD13B50446084659B1019101F0F1
:104BBC0087F823680199DB680246204602B0BDE8FD
:104BCC001040184702B010BD08B5FFF7EBFF08BD49
:104BDC0003689B68184738B50D210546FFF7F8FFA9
:104BEC000A2104462846FFF7F3FF204438BD38B5A8
:104BFC000546FFF7D7FF04462846FFF7ECFF204495
:104C0C0038BD30B58BB000238DF82430012A98BF05
:104C1C000A2209AC0D46B1FBF2F101FB125303F071
:104C2C00FF03092B94BF30333733DBB2AA4204F8AD
:104C3C00013DEFD92146FFF7B5FF0BB030BD0000A9
:104C4C002DE9F74F55EC104B06460F4610EE102A87
:104C5C0010EE100A2B46294600F094FF40B1534940
:104C6C003046FFF79FFF8246504603B0BDE8F08FF9
:104C7C0025F000494E4B4FF0FF322046494600F0DC
:104C8C0081FF48B94A4B4FF0FF322046494600F0AD
:104C9C005BFF08B94749E3E7474B4FF060422046BA
:104CAC00294600F065FF08B14449D9E7444B4FF061
:104CBC0060422046294600F03DFF0028F4D1002236
:104CCC0000232046294600F035FFD0B12D21304677
:104CDC00FFF77EFF05F1004382461D463949DFF898
:104CEC00EC904FF0000B00204FF000085FFA8BF3B4
:104CFC009F4208D942464B4600F0D4FD0BF1010B04
:104D0C00F4E78246EAE722462B4600F0EBFA0D4622
:104D1C00044600F075FF804600F020FC02460B466E
:104D2C002046294600F0DCFA0A2204460D4630469D
:104D3C004146FFF766FF824427B123493046FFF70F
:104D4C0031FF8244DFF884904FF00008013FFFB23E
:104D5C00FF2F89D042464B462046294600F078FC6E
:104D6C0004460D4600F024FFB0F1000B1ADA2D2199
:104D7C003046FFF72DFFCBF1000103460A223046E7
:104D8C000193FFF73EFF019B18448244584600F004
:104D9C00F5FB02460B462046294600F0A1FA0446D4
:104DAC000D46D3E759460023E8E700BF045F0D002A
:104DBC00FFFFEF7F085F0D00FFFFEF410C5F0D0061
:104DCC00FFFFEFC10000E03F105F0D00000024402A
:104DDC0038B5044610EE100ACDB200F0E1FB41EC00
:104DEC00100B29462046BDE83840FFF729BF0000CC
:104DFC00014B00229A607047C8E5032010B50446A9
:104E0C0008462170FFF77EFB00236360204610BD2F
:104E1C00054B02221A60054B054A9A600020186067
:104E2C0098809871FFF7FEBBE4E50320D8E50320DA
:104E3C000000FFFF024B1A68024B1A60704700BF5C
:104E4C00F4E40320E8E50320704741747047704791
:104E5C0008B5007CFFF79EFB20EAE07008BD08B5A2
:104E6C00007CFFF76FFB20EAE07008BD08B5007C02
:104E7C00FFF778FB40EAE07008BD08B5007CFFF74F
:104E8C0069FB40EAE07008BD007CFFF773BB37B5E7
:104E9C00457C04462DB1207C03B0BDE83040FFF7C3
:104EAC0049BB007C0191FFF775FB00280199F2DCEE
:104EBC00284603B030BD10B51421044600F008FAA2
:104ECC00204610BD10B54FF0000C044608461146A4
:104EDC004FF47A72C4E901C2044A226001222074A0
:104EEC0062741A46FFF71EFB204610BD385F0D009A
:104EFC00007C0023FFF756BB13B50D4C2178BFF394
:104F0C005B8F11F0010110D120460191FFF7BFF822
:104F1C00019950B1074B084A0848FFF7D3FF2046C8
:104F2C00FFF7BAF8064800F08BFE044802B010BD3B
:104F3C00ECE5032074E60320F0E50320F8E60320FB
:104F4C005B4E0D00417470477047704708B50021E7
:104F5C00007CFFF74FFB40EAE07008BD08B501216B
:104F6C00007CFFF747FB40EAE07008BD08B5007C09
:104F7C00FFF738FB20EAE07008BD08B5007CFFF7AE
:104F8C0029FB20EAE07008BD13B50446007C0191B2
:104F9C00FFF728FB0028019901DC607C20B1207C04
:104FAC00FFF730FB20EAE07002B010BD007CFFF789
:104FBC0031BB10B51421044600F08AF9204610BD0F
:104FCC0010B54FF47A73044608460021C4E9011366
:104FDC00044B23600123207463741146FFF7EAFA33
:104FEC00204610BD685F0D00007C0022FFF7EABA76
:104FFC0010B514220446002100F036FE204610BDE8
:10500C0010B50F4C88B003A8FFF7F2FF2178BFF35F
:10501C005B8F11F001010FD120460191FFF737F89A
:10502C00019948B103AA0748FFF7CAFF2046FFF7CA
:10503C0033F8054800F004FE024808B010BD00BF6C
:10504C000CE7032010E70320554F0D00014B1860AF
:10505C00704700BFF8E4032008B50B4B43B1FFF7D2
:10506C00CFFF03681B699847002801DDAFF3008070
:10507C00064B43B1FFF740FF03681B6998470028B4
:10508C0001DDAFF3008008BD00000000000000004F
:10509C0008B5FFF7E1FFFFF7C5F9014B186008BD34
:1050AC0038E703200548064A064908B5121A00F0ED
:1050BC00CDFD054B054A1A6008BD00BF00F4032066
:1050CC0004F40320C05F0D0000F403201E1C279A7B
:1050DC0007B5002300931A466FF07701FFF7BCFA6F
:1050EC0003B05DF804FB000007B543880A2B08D019
:1050FC00502B0BD1094B1B684BB103B05DF804EB83
:10510C001847FFF7E5FF03B05DF804FB002300939D
:10511C001A466FF07701FFF79FFAF4E728E70320B0
:10512C0010B512480021FFF721FB114B1A68114BE7
:10513C009A42114B0CBF012200221A7001D0FFF7CA
:10514C00B1FFFFF767F9044600F096FD0B4B13B166
:10515C002046AFF3008000210848FFF787FABDE82E
:10516C00104007480021FFF76DBA00BF59500D00E1
:10517C0000F403201E1C279A24E7032000000000E3
:10518C00F5500D00232813B502D9002002B010BD34
:10519C00A0F10B03022B1AD8174C2178BFF35B8FAD
:1051AC0011F001010BD120460191FEF770FF01991E
:1051BC0028B11248FFF722FE2046FEF76DFF0F4B79
:1051CC001878FFF7A7F90028DFD10120DEE70128C6
:1051DC0009D800F059F80021007CFFF76BF980F03A
:1051EC000100C0B2D2E709380128EED8FFF784FEDF
:1051FC00007CFFF7C7F9F2E72CE7032030E7032028
:10520C00232838B504460D460AD8FF2908D0FFF7E5
:10521C00B9FF28B129462046BDE83840FFF70AB946
:10522C0038BD38B504460D46FFF70CF9FF2810D0F1
:10523C00062804D84D2323FA00F0C30709D42046CE
:10524C00FFF7A0FF28B129462046BDE83840FFF7FC
:10525C0001B938BD7047000038B5002320254380C4
:10526C00142304460380856005610649284600F036
:10527C0031F804496060284600F02CF8E0602046C4
:10528C0038BD00BF905F0D0030B50E4D2978BFF3CF
:10529C005B8F11F0010487B011D12846FEF7F7FEA1
:1052AC0068B101A8FFF7D8FF01AA21460648FFF70D
:1052BC0027FB2846FEF7F0FE044800F0C1FC02482C
:1052CC0007B030BD3CE7032040E7032061520D00DE
:1052DC00FEF7DBBEFEF7D7BE81F0004102E000BF57
:1052EC0083F0004330B54FEA41044FEA430594EA9A
:1052FC00050F08BF90EA020F1FBF54EA000C55EAD5
:10530C00020C7FEA645C7FEA655C00F0E2804FEAA5
:10531C005454D4EB5555B8BF6D420CDD2C4480EA87
:10532C00020281EA030382EA000083EA010180EAB7
:10533C00020281EA0303362D88BF30BD11F0004F05
:10534C004FEA01314FF4801C4CEA113102D040423B
:10535C0061EB410113F0004F4FEA03334CEA133376
:10536C0002D0524263EB430394EA050F00F0A7808E
:10537C00A4F10104D5F1200E0DDB02FA0EFC22FA89
:10538C0005F2801841F1000103FA0EF2801843FA7D
:10539C0005F359410EE0A5F120050EF1200E012A6E
:1053AC0003FA0EFC28BF4CF0020C43FA05F3C018AC
:1053BC0051EBE37101F0004507D54FF0000EDCF125
:1053CC00000C7EEB00006EEB0101B1F5801F1BD3CE
:1053DC00B1F5001F0CD349085FEA30004FEA3C0CD2
:1053EC0004F101044FEA445212F5800F80F09A80C8
:1053FC00BCF1004F08BF5FEA500C50F1000041EBCC
:10540C00045141EA050130BD5FEA4C0C404141EBCF
:10541C000101013C28BFB1F5801FE9D291F0000FCA
:10542C0004BF01460020B1FA81F308BF2033A3F179
:10543C000B03B3F120020CDA0C3208DD02F1140C70
:10544C00C2F10C0201FA0CF021FA02F10CE002F1AB
:10545C001402D8BFC2F1200C01FA02F120FA0CFCA4
:10546C00DCBF41EA0C019040E41AA2BF01EB0451ED
:10547C00294330BD6FEA04041F3C1CDA0C340EDCEB
:10548C0004F11404C4F1200220FA04F001FA02F32E
:10549C0040EA030021FA04F345EA030130BDC4F1EC
:1054AC000C04C4F1200220FA02F001FA04F340EAE1
:1054BC000300294630BD21FA04F0294630BD94F092
:1054CC00000F83F4801306BF81F480110134013D79
:1054DC004EE77FEA645C18BF7FEA655C29D094EAEA
:1054EC00050F08BF90EA020F05D054EA000C04BF68
:1054FC001946104630BD91EA030F1EBF0021002053
:10550C0030BD5FEA545C05D14000494128BF41F0F1
:10551C00004130BD14F580043CBF01F5801130BD55
:10552C0001F0004545F0FE4141F470014FF00000E0
:10553C0030BD7FEA645C1ABF194610467FEA655C91
:10554C001CBF0B46024650EA013406BF52EA033533
:10555C0091EA030F41F4002130BD00BF90F0000F21
:10556C0004BF0021704730B54FF4806404F132045D
:10557C004FF000054FF0000150E700BF90F0000F16
:10558C0004BF0021704730B54FF4806404F132043D
:10559C0010F0004548BF40424FF000013EE700BF0D
:1055AC0042004FEAE2014FEA31014FEA02701FBF9D
:1055BC0012F07F4393F07F4F81F06051704732F0CF
:1055CC007F4208BF704793F07F4F04BF41F4002126
:1055DC00704730B54FF4607401F0004521F0004184
:1055EC001CE700BF50EA010208BF704730B54FF00E
:1055FC0000050AE050EA010208BF704730B511F00F
:10560C00004502D5404261EB41014FF4806404F146
:10561C0032045FEA915C3FF4D8AE4FF003025FEACC
:10562C00DC0C18BF03325FEADC0C18BF033202EB50
:10563C00DC02C2F1200300FA03FC20FA02F001FAAA
:10564C0003FE40EA0E0021FA02F11444BDE600BF4D
:10565C0070B54FF0FF0C4CF4E06C1CEA11541DBFFC
:10566C001CEA135594EA0C0F95EA0C0F00F0DEF8C7
:10567C002C4481EA030621EA4C5123EA4C5350EAAC
:10568C00013518BF52EA033541F4801143F48013FD
:10569C0038D0A0FB02CE4FF00005E1FB02E506F08E
:1056AC000042E0FB03E54FF00006E1FB03569CF0E3
:1056BC00000F18BF4EF0010EA4F1FF04B6F5007FE9
:1056CC0064F5407404D25FEA4E0E6D4146EB06065B
:1056DC0042EAC62141EA55514FEAC52040EA5E50E4
:1056EC004FEACE2EB4F1FD0C88BFBCF5E06F1ED88E
:1056FC00BEF1004F08BF5FEA500E50F1000041EBC5
:10570C00045170BD06F0004646EA010140EA020071
:10571C0081EA0301B4EB5C04C2BFD4EB0C0541EA93
:10572C00045170BD41F480114FF0000E013C00F3A8
:10573C00AB8014F1360FDEBF002001F0004170BDCC
:10574C00C4F10004203C35DA0C341BDC04F11404E5
:10575C00C4F1200500FA05F320FA04F001FA05F271
:10576C0040EA020001F0004221F0004110EBD3703E
:10577C0021FA04F642EB06015EEA430E08BF20EA6A
:10578C00D37070BDC4F10C04C4F1200500FA04F30D
:10579C0020FA05F001FA04F240EA020001F000419F
:1057AC0010EBD37041F100015EEA430E08BF20EA12
:1057BC00D37070BDC4F1200500FA05F24EEA020E5A
:1057CC0020FA04F301FA05F243EA020321FA04F089
:1057DC0001F0004121FA04F220EA020000EBD37040
:1057EC005EEA430E08BF20EAD37070BD94F0000F40
:1057FC000FD101F00046400041EB010111F4801F74
:10580C0008BF013CF7D041EA060195F0000F18BF24
:10581C00704703F00046520043EB030313F4801F60
:10582C0008BF013DF7D043EA0603704794EA0C0F1A
:10583C000CEA135518BF95EA0C0F0CD050EA410630
:10584C0018BF52EA4306D1D181EA030101F00041AD
:10585C004FF0000070BD50EA410606BF10461946D5
:10586C0052EA430619D094EA0C0F02D150EA0136E1
:10587C0013D195EA0C0F05D152EA03361CBF104622
:10588C0019460AD181EA030101F0004141F0FE41C1
:10589C0041F470014FF0000070BD41F0FE4141F445
:1058AC00780170BD70B54FF0FF0C4CF4E06C1CEA45
:1058BC0011541DBF1CEA135594EA0C0F95EA0C0FFA
:1058CC0000F0A7F8A4EB050481EA030E52EA0335B5
:1058DC004FEA013100F088804FEA03334FF08055D6
:1058EC0045EA131343EA12634FEA022245EA111503
:1058FC0045EA10654FEA00260EF000419D4208BFB4
:10590C00964244F1FD0404F5407402D25B084FEA60
:10591C003202B61A65EB03055B084FEA32024FF40C
:10592C0080104FF4002CB6EB020E75EB030E22BF69
:10593C00B61A754640EA0C005B084FEA3202B6EB29
:10594C00020E75EB030E22BFB61A754640EA5C00D8
:10595C005B084FEA3202B6EB020E75EB030E22BF68
:10596C00B61A754640EA9C005B084FEA3202B6EB69
:10597C00020E75EB030E22BFB61A754640EADC0028
:10598C0055EA060E18D04FEA051545EA16754FEA8A
:10599C0006164FEAC30343EA52734FEAC2025FEAA8
:1059AC001C1CC0D111F4801F0BD141EA00014FF037
:1059BC0000004FF0004CB6E711F4801F04BF014308
:1059CC000020B4F1FD0C88BFBCF5E06F3FF6AFAE24
:1059DC00B5EB030C04BFB6EB020C5FEA500C50F1B4
:1059EC00000041EB045170BD0EF0004E4EEA113137
:1059FC0014EB5C04C2BFD4EB0C0541EA045170BD3E
:105A0C0041F480114FF0000E013C90E645EA060E81
:105A1C008DE60CEA135594EA0C0F08BF95EA0C0FAF
:105A2C003FF43BAF94EA0C0F0AD150EA01347FF4F7
:105A3C0034AF95EA0C0F7FF425AF104619462CE7CE
:105A4C0095EA0C0F06D152EA03353FF4FDAE104631
:105A5C00194622E750EA410618BF52EA43067FF482
:105A6C00C5AE50EA41047FF40DAF52EA43057FF412
:105A7C00EBAE12E74FF0FF3C06E000BF4FF0010C1D
:105A8C0002E000BF4FF0010C4DF804CD4FEA410C81
:105A9C007FEA6C5C4FEA430C18BF7FEA6C5C1BD04E
:105AAC0001B050EA410C0CBF52EA430C91EA030FCF
:105ABC0002BF90EA020F0020704710F1000F91EA2C
:105ACC00030F58BF994208BF90422CBFD8176FEAFA
:105ADC00E37040F0010070474FEA410C7FEA6C5CC8
:105AEC0002D150EA013C07D14FEA430C7FEA6C5CCF
:105AFC00D6D152EA033CD3D05DF8040B704700BFFB
:105B0C008446104662468C461946634600E000BF48
:105B1C0001B5FFF7B7FF002848BF10F1000F01BD1A
:105B2C004DF808EDFFF7F4FF0CBF012000205DF8E5
:105B3C0008FB00BF4DF808EDFFF7EAFF34BF01206A
:105B4C0000205DF808FB00BF4DF808EDFFF7E0FF03
:105B5C0094BF012000205DF808FB00BF4DF808ED54
:105B6C00FFF7CEFF94BF012000205DF808FB00BFBB
:105B7C004DF808EDFFF7C4FF34BF012000205DF89D
:105B8C0008FB00BF4FEA410C7FEA6C5C02D150EA83
:105B9C00013C0AD14FEA430C7FEA6C5C02D152EA19
:105BAC00033C02D14FF0000070474FF001007047EA
:105BBC004FEA410212F5001215D211D56FF4787329
:105BCC00B3EB625212D94FEAC12343F0004343EACC
:105BDC00505311F0004F23FA02F018BF40427047A7
:105BEC004FF00000704750EA013005D111F0004031
:105BFC0008BF6FF0004070474FF00000704700BFC7
:105C0C004A0011D212F5001211D20DD56FF478732F
:105C1C00B3EB62520ED44FEAC12343F0004343EA84
:105C2C00505323FA02F070474FF00000704750EACF
:105C3C00013002D14FF0FF3070474FF00000704739
:105C4C00002301461A46184600F042B80A44914215
:105C5C0000F1FF3300D1704710B511F8014B03F878
:105C6C00014F9142F9D110BD02440346934200D139
:105C7C00704703F8011BF9E738B50D4B1D68AB6B8A
:105C8C0004467BB91820FEF759FD0A4A0A4BA86353
:105C9C00C0E90023094B83600B238381012200237D
:105CAC00C0E90423AB6B00221C615A6138BD00BFF4
:105CBC00F8E403200E33CDAB34126DE6ECDE0500B8
:105CCC00034613F8012B002AFBD1181A0138704730
:105CDC002DE9F843DFF8B8800646D8F800001F46D7
:105CEC000D46914600F056F8254B1C6834B9254CEE
:105CFC001C60254B13B11B68C4F8883063681F2BDC
:105D0C0007DDD8F8000000F047F84FF0FF30BDE891
:105D1C00F8834EB3D4F8880088B91C4B23B9D8F853
:105D2C00000000F038F8F0E74FF48470FEF706FD41
:105D3C000028F4D00023C0E94033C4F8880063681D
:105D4C0040F8239001229A4000EB8301D0F80031F7
:105D5C001343022EC0F80031C1F8807002BFD0F896
:105D6C0004311A43C0F804216368D8F800005A1CA7
:105D7C000233626044F8235000F00EF80020C6E7AE
:105D8C00E0E7032054E703200000000049470D0022
:105D9C005CE5032070477047704700001D400D0004
:105DAC0059400D0081400D0085400D0000000000A1
:105DBC000000000000000000AB400D00AD400D00E5
:105DCC0025635B313B304800566F6C746167653AF4
:105DDC0020202000560043757272656E743A2020A4
:105DEC0020004100506F7765723A2020202020005F
:105DFC0057004672657175656E63793A2000487A72
:105E0C00000000000000000000000000FF470D0033
:105E1C00F5470D00EB470D00A1470D00DF470D00C6
:105E2C00D3470D00654A0D006D4A0D00C7470D00A4
:105E3C00BF470D00B5470D00AB470D009D4A0D0047
:105E4C00000000000000000097480D008D480D0078
:105E5C0083480D0079480D006D480D0061480D0018
:105E6C00654A0D006D4A0D0055480D004D480D005A
:105E7C0043480D0039480D009D4A0D0000000000FC
:105E8C0000000000B5480D00FF480D00D7480D007C
:105E9C00B7480D00DF480D00E7480D00EF480D0036
:105EAC00F7480D00000000000000000041490D0003
:105EBC0031490D0033490D00617070000000000085
:105ECC0000000000254A0D002F4A0D00394A0D0034
:105EDC00434A0D004D4A0D00594A0D00654A0D000C
:105EEC006D4A0D00754A0D00814A0D00894A0D005E
:105EFC00934A0D009D4A0D006E616E00696E66003E
:105F0C006F7666002E0025592D256D2D25645425A0
:105F1C00483A254D3A2553257A0061736374696DAF
:105F2C00650000000000000000000000554E0D0050
:105F3C00C34E0D009B4E0D00854B0D006B4E0D009E
:105F4C00874E0D00794E0D00954E0D00574E0D00ED
:105F5C005D4E0D000000000000000000574F0D00CA
:105F6C00BF4F0D00954F0D00854B0D00874F0D0059
:105F7C00594F0D00694F0D00B94F0D00794F0D00B1
:105F8C00514F0D0000000000ED430D0091470D0036
:105F9C0009480D00A1480D00154A0D00714B0D006C
:105FAC00FD4D0D001D4E0D00414E0D00000000007A
:045FBC0000000000E1
:045FC00000000000DD
:105FC400265F0D00FCE40320000000000000000038
:105FD40000000000000000000000000000000000BD
:105FE40000000000000000000000000000000000AD
:105FF400000000000000000000000000000000009D
:10600400000000000000000000000000000000008C
:10601400000000000000000000000000000000007C
:0C6024000000000000000000E5E7032081
:10603000FFFFFFFF00000102030405060708090A2D
:106040000B0C0D0E0F101112131415161718191A28
:086050001B1C1D1E1F2028006F
:046058007856341230
:04000003D000401CCD
:00000001FF
