:02000002B0004C
:1040000000400B0004610B00000006000D000502DB
:0840100004011F0C0000000078
:04401800EC5D0B0050
:10401C0009480A49884208B505D0094A824202D0AB
:10402C00121A01F091FE0748074A0021121A01F0FA
:10403C0099FE014808BD00BF90E5032074600B0099
:10404C00F8E50320F8E50320F0E7032070B5074EF0
:10405C00074C01F0D5F8A41BA4080025A54200D1FB
:10406C0070BD56F8043B98470135F7E748600B00E4
:10407C006C600B0000F024B908B500F02FF9BDE816
:10408C00084001F075B800F06BBB00F071BB007814
:10409C00B0FA80F0400970470123037070477047F5
:1040AC0010B52021044601F088F9204610BD00000F
:1040BC0030B5074D05604FF4480505614FF4FA75AE
:1040CC0085820025C0E90655C0E90212436030BD67
:1040DC00085E0B0030B50A444FF6FF704AF201043B
:1040EC0091420ED011F8013B5840082300F0010515
:1040FC0040080DB1604080B2013B13F0FF03F5D1D5
:10410C00EEE730BD10B50C4600F09EF9044400F00B
:10411C005BFF03681B69984770B100F055FF03689B
:10412C001B69984720B100F04FFF03685B69984703
:10413C00012000F03DFBEAE700F086F98442ECD266
:10414C0010BD808901F0DDB810B5044600F03CFFCD
:10415C00D4E9012100F034FFA089012101F0C0F85D
:10416C0020460021BDE81040FFF7EBBFF0B585B04D
:10417C0004238DF80530514B8DF8042000260227BE
:10418C0000938DF807100B0A154601A906228DF82D
:10419C000630044602968DF80C608DF80970FFF716
:1041AC0099FF8DF80A00000A31468DF80B00204665
:1041BC00FFF7A8FF01212046FFF7C3FF384600F0A8
:1041CC00F7FA00F001FF0368082201A9DB689847A1
:1041DC0000F0FAFE0368DB69984731462046FFF78A
:1041EC00B0FF00F031F9638A1E1800F0EDFE036891
:1041FC001B699847082857DC00F026F9B04247D8CD
:10420C0000F002F9F1E701AF002600F0DDFE0368D3
:10421C005B6998470136092E07F8010BF5D19DF81B
:10422C000430AB4236D19DF80530042B32D19DF8C9
:10423C000630042B2ED1072201A92046FFF74AFF96
:10424C00BDF80B30834227D19DF807308DF8033031
:10425C009DF808308DF802309DF809308DF801304A
:10426C009DF80A308DF800300025A18A2046FFF712
:10427C0049FF00F0A9FE03681B69984770B97DB12E
:10428C00A36925820133A3619DED000A05B0F0BD41
:10429C000425EAE70225E8E70125E6E70425EFE730
:1042AC00E3690133E361EFE700F08EFE03681B69FD
:1042BC0098470828A7DC0325D7E700BF0000C07F7C
:1042CC0008B500F009FF4FF4165100F0F9FEBDE8F7
:1042DC0008400148FFF738BFFCE5032030B585B036
:1042EC001B223449344C01A800F04AFA00F0F4FEC9
:1042FC0001A900F0A7FC00F0EFFE304900F0A2FC91
:10430C0000F0EAFE0122054600212046FFF72EFFB1
:10431C000221284600F09AFD00F0DEFE284900F04C
:10432C00A4FC00F0D9FE274900F08CFC00F0D4FE70
:10433C000122054606212046FFF718FF02212846D8
:10434C0000F084FD00F0C8FE1F4900F08EFC00F068
:10435C00C3FE1E4900F076FC00F0BEFE01220546AD
:10436C000C212046FFF702FF0221284600F06EFDCB
:10437C0000F0B2FE164900F078FC00F0ADFE1549D5
:10438C0000F060FC00F0A8FE012205464621204604
:10439C00FFF7ECFE0221284600F058FD00F09CFED1
:1043AC000D4900F062FC4FF47A7000F001FA05B090
:1043BC0030BD00BF105E0B00FCE50320185E0B0047
:1043CC00245E0B00265E0B00325E0B00345E0B008D
:1043DC00405E0B00425E0B004E5E0B0010B5074CAE
:1043EC0002224FF4165120460023FFF761FE2046AF
:1043FC00034A0449BDE8104000F0DABFFCE5032095
:10440C00F8E50320AB400B0008B5024B1B68DB68DA
:10441C00019308BD4802030008B5024B1B685B6C96
:10442C00019308BD4802030008B5024B1B689B6C46
:10443C00019308BD4802030008B5024B1B685B687A
:10444C00019308BD1802030008B5024B1B685B6999
:10445C00019308BD1802030008B5024B1B689B684A
:10446C00019308BD2C02030008B5024B1B68DB68E6
:10447C00019308BD2C02030008B5024B1B681B6995
:10448C00019308BD2C02030008B5024B1B681B6A84
:10449C00019308BD2802030008B5024B1B685B6A38
:1044AC00019308BD2802030008B5024B1B689B6AE8
:1044BC00019308BD2802030008B5024B1B68DB6A98
:1044CC00019308BD2802030008B5024B1B681B6B47
:1044DC00019308BD2802030008B5024B1B685B6BF7
:1044EC00019308BD2802030008B5024B1B681B6C26
:1044FC00019308BD2802030008B5024B1B685B69D9
:10450C00019308BD6402030008B5024B1B689B684D
:10451C00019308BD6802030008B5024B1B68DB68F9
:10452C00019308BD6802030008B5024B1B68DB69E8
:10453C00019308BD3002030008B5024B1B681B6ACF
:10454C00019308BD3002030008B5024B1B681B68C1
:10455C00019308BD3C02030008B5024B1B68DB68E5
:10456C00019308BD3C02030008B5024B1B681B6994
:10457C00019308BD3C02030008B5024B1B685B6944
:10458C00019308BD3C02030008B5024B1B689B69F4
:10459C00019308BD3C02030008B5024B1B68DB69A4
:1045AC00019308BD3C02030008B5024B1B681B6A53
:1045BC00019308BD3C02030008B5024B1B689B6AC3
:1045CC00019308BD3C02030008B5024B1B68DB6A73
:1045DC00019308BD3C02030008B5024B1B681B6825
:1045EC00019308BD4C02030008B5024B1B685B68C5
:1045FC00019308BD4C02030008B5024B1B681B69F4
:10460C00019308BD4C02030008B5024B1B685B69A3
:10461C00019308BD4C02030008B5024B1B689B6953
:10462C00019308BD4C02030008B5024B1B68DB6903
:10463C00019308BD4C02030008B5024B1B681B6AB2
:10464C00019308BD4C02030008B5024B1B685B6864
:10465C00019308BD2002030008B5024B1B685B697F
:10466C00019308BD2002030008B5034B1B68D3F867
:10467C008830019308BD00002002030008B5034BED
:10468C001B68D3F89430019308BD0000200203008E
:10469C0008B5024B1B68DB6B019308BD4402030099
:1046AC0008B5024B1B685B68019308BD4002030010
:1046BC0008B5024B1B689B68019308BD40020300C0
:1046CC0008B5024B1B68DB68019308BD4002030070
:1046DC0008B5024B1B681B69019308BD400203001F
:1046EC0008B5024B1B685B69019308BD40020300CF
:1046FC0008B5024B1B689B69019308BD400203007F
:10470C0008B5024B1B68DB69019308BD400203002E
:10471C0008B5024B1B681B6A019308BD40020300DD
:10472C0008B5024B1B681B6B019308BD40020300CC
:10473C0008B5024B1B685B6B019308BD400203007C
:10474C0008B5024B1B681B6C019308BD40020300AB
:10475C0008B5024B1B685B6C019308BD400203005B
:10476C0008B5024B1B681B68019308BD1C020300B3
:10477C0008B5024B1B685B68019308BD1C02030063
:10478C0008B5024B1B68DB68019308BD1C020300D3
:10479C0008B5024B1B681B6C019308BD1C0203007F
:1047AC0008B5024B1B685B6C019308BD1C0203002F
:1047BC000021FFF751BF10B50446006808B1FFF7A0
:1047CC0033FE204610BD10B58368044613B1032296
:1047DC0001469847204610BD10B5064C00232046D4
:1047EC002360FFF719FE2046034A0449BDE8104038
:1047FC0000F0DEBD1CE60320F8E50320C3470B00E8
:10480C00002240681146FFF763BF00224068114642
:10481C00FFF77EBF002240681146FFF789BF406852
:10482C000022FFF77DBF4068002281F00101FFF7F5
:10483C0067BF002340681A461946FFF759BF00238B
:10484C0040681A461946FFF74BBF002240681146D4
:10485C00FFF72EBF406800220221FFF731BF002373
:10486C0040681A46FFF71CBF084B10B52824224697
:10487C001846002101F076FA054B04804FF0FF3208
:10488C00426004225A60034A1A6010BD28E60320D5
:10489C0020E603205C5E0B00002240681146FFF707
:1048AC0037BF002240681146FFF742BF4068002224
:1048BC00FFF736BF4068002281F00101FFF720BFEF
:1048CC00002340681A461946FFF712BF00234068C0
:1048DC001A461946FFF704BF002240681146FFF73D
:1048EC00F7BE002240681146FFF7E2BE4068002286
:1048FC000221FFF7E5BE002340681A46FFF7D0BE41
:10490C00024B03225A60024A1A60704750E6032099
:10491C00985E0B007047F8B5064615460C468F1886
:10492C00BC4206D0336814F8011B9B68304698478C
:10493C00F6E72846F8BD007C0022FFF7A5BD007CF9
:10494C000021FFF7A9BD007C0021FFF7ADBD007C65
:10495C000021FFF7B1BD007C0021FFF7B5BD10B5FC
:10496C001421044600F029FD204610BD10B54FF46B
:10497C007A73044608460021C4E90113034B2360F3
:10498C0020741146FFF7B0FD204610BDD45E0B001D
:10499C00704710B51821044600F00FFD204610BDDD
:1049AC00F0B5037D062B8DB00E4600F104074FF0D9
:1049BC00000412D000F1080515F8011D0A2230463A
:1049CC0000F05DF9AF42044419D0002CF4D02E2134
:1049DC00304600F03BF90444EEE72F236A46394693
:1049EC000A208DF80040FFF787FD684601F0F0F9CA
:1049FC0033680246DB6869463046984704462046D1
:104A0C000DB0F0BD10B5054B0446112240F8043B27
:104A1C00002101F0A7F9204610BD00BFFC5E0B0081
:104A2C000346074A10B543F8042B01F1100251F864
:104A3C00044B43F8044B9142F9D10A781A7010BD1B
:104A4C00FC5E0B0010B59DF8084044EA032343EAD2
:104A5C00024242EA016104234160037510BD00006B
:104A6C0007B5064B0360CB7800938B784A780978AE
:104A7C00FFF7E8FF03B05DF804FB00BFFC5E0B0022
:104A8C00014B024A1A60704758E60320085F0B007E
:104A9C00002340681A46FFF703BE4068002202213B
:104AAC00FFF70EBE002240681146FFF701BE002240
:104ABC0040681146FFF70CBE002340681A461946A1
:104ACC00FFF70EBE002340681A461946FFF710BECA
:104ADC0040680021FFF734BE40680021FFF738BE64
:104AEC004068002281F00101FFF70ABE40680022F5
:104AFC00FFF716BE002240681146FFF719BE0022D0
:104B0C0040681146FFF704BE2DE9F04395B01446FA
:104B1C000D460746FFF776FF00211C220DA80091D9
:104B2C0001F020F940230C9320466B460CAA00217F
:104B3C00FFF7F2FC044600284BD1024601216868BD
:104B4C00FFF7C6FD0221804622466868FFF7C0FDCC
:104B5C00009E81462146002E3BD0002939D1736836
:104B6C00022B03D00A2B11D0F669F4E7B8F1000F31
:104B7C00FAD0716906A8043107ADFFF771FF0FCDAC
:104B8C003C1D0FC42B6823704146EDE7B9F1000FB3
:104B9C00EAD07469102201A801F0E4F806238DF81C
:104BAC00143001AD04F108031834186859682A460A
:104BBC0003C20833A3421546F7D101A906A807ADD5
:104BCC00FFF72EFF0FCD3C1D0FC42B6823704946F9
:104BDC00CAE70098FFF798FC384615B0BDE8F0839B
:104BEC00024B034A1A6000225A6070475CE60320AD
:104BFC00145F0B00F8B506460D468F180024BD4215
:104C0C000CD0336815F8011B9B6830469847031E7F
:104C1C0001DB1C44F3E7002C08BF1C462046F8BD02
:104C2C0013B50446084659B1019101F0D1F8236837
:104C3C000199DB680246204602B0BDE810401847D7
:104C4C0002B010BD08B5FFF7EBFF08BD03689B6809
:104C5C00184738B50D210546FFF7F8FF0A21044621
:104C6C002846FFF7F3FF204438BD38B50546FFF75B
:104C7C00D7FF04462846FFF7ECFF204438BD30B57B
:104C8C008BB00023012A8DF8243098BF0A2209AC7E
:104C9C000D46B1FBF2F101FB125303F0FF03092B9C
:104CAC0094BF30333733DBB2AA4204F8013DEFD95D
:104CBC002146FFF7B5FF0BB030BD00002DE9F74FD3
:104CCC0055EC104B06460F4610EE102A10EE100A4B
:104CDC002B46294600F0CCFF40B153493046FFF734
:104CEC009FFF8246504603B0BDE8F08F25F0004987
:104CFC004E4B4FF0FF322046494600F0B9FF48B901
:104D0C004A4B4FF0FF322046494600F093FF08B95A
:104D1C004749E3E7474B4FF060422046294600F0F5
:104D2C009DFF08B14449D9E7444B4FF060422046FF
:104D3C00294600F075FF0028F4D1002200232046FC
:104D4C00294600F06DFFD0B12D213046FFF77EFFD4
:104D5C0005F1004382461D463949DFF8EC904FF0CF
:104D6C00000B00204FF000085FFA8BF39F4208D92C
:104D7C0042464B4600F00CFE0BF1010BF4E7824669
:104D8C00EAE722462B4600F023FB0D46044600F0D2
:104D9C00ADFF804600F058FC02460B4620462946E3
:104DAC0000F014FB0A2204460D4630464146FFF73C
:104DBC0066FF8244002F95D02249DFF88C90304654
:104DCC00FFF72EFF4FF000088244002F8AD0424696
:104DDC004B462046294600F0B1FC04460D4600F037
:104DEC005DFFB0F1000B1CDA2D213046FFF72EFFD2
:104DFC00CBF1000103460A2230460193FFF73FFF37
:104E0C00019B18448244584600F02EFC02460B4687
:104E1C002046294600F0DAFA013F04460D46FFB25F
:104E2C00D3E759460023E6E7485F0B00FFFFEF7F0F
:104E3C004C5F0B00FFFFEF41505F0B00FFFFEFC11A
:104E4C000000E03F545F0B000000244038B50446DE
:104E5C0010EE100ACDB200F019FC41EC100B2946F3
:104E6C002046BDE83840FFF729BF10B50446FFF7D0
:104E7C00AAFC204610BD00000348044A0449002344
:104E8C00836000F095BA00BF64E60320F8E50320C8
:104E9C00774E0B0010B5044608462170FFF744FB13
:104EAC0000236360204610BD10B50446006818B19D
:104EBC00FFF75EFC0023236010BD10B50446FFF71E
:104ECC00F3FF204610BD000010B5094B094C02221F
:104EDC001A600020084BA360C4E90000FFF7B4FB84
:104EEC002046064A0649BDE8104000F061BA00BFF2
:104EFC0080E6032074E603200000FFFFF8E50320A2
:104F0C00C74E0B00024B1A68024B1A60704700BF69
:104F1C0090E5032084E6032070474174704708B580
:104F2C00007CFFF749FB20EAE07008BD08B5007C67
:104F3C00FFF71AFB20EAE07008BD08B5007CFFF70C
:104F4C0023FB40EAE07008BD08B5007CFFF714FBBA
:104F5C0040EAE07008BD007CFFF71EBB37B5457C0E
:104F6C0004462DB1207C03B0BDE83040FFF7F4BA05
:104F7C00007C0191FFF720FB00280199F2DC284608
:104F8C0003B030BD10B51421044600F016FA2046CB
:104F9C0010BD000010B54FF0000C04460846114639
:104FAC004FF47A72C4E901C2044A226001222074CF
:104FBC0062741A46FFF7C8FA204610BD7C5F0B00DE
:104FCC00007C0023FFF700BB13B50E4C2178BFF318
:104FDC005B8F11F0010112D120460191FFF757F8B8
:104FEC00019960B1084A094B0948FFF7D3FF2046E5
:104FFC00FFF752F8074A0849054800F0D9F9044868
:10500C0002B010BD88E603208CE6032010E70320D5
:10501C0094E70320F8E50320254F0B0041747047FB
:10502C00704708B50021007CFFF7F6FA40EAE07003
:10503C0008BD08B50121007CFFF7EEFA40EAE070EC
:10504C0008BD08B5007CFFF7DFFA20EAE07008BD68
:10505C0008B5007CFFF7D0FA20EAE07008BD13B564
:10506C000446007C0191FFF7CFFA0028019901DC7E
:10507C00607C20B1207CFFF7D7FA20EAE07002B008
:10508C0010BD007CFFF7D8BA10B51421044600F00F
:10509C0094F9204610BD000010B54FF47A73044605
:1050AC0008460021C4E90113044B2360012320743A
:1050BC0063741146FFF790FA204610BDAC5F0B00ED
:1050CC00007C0022FFF790BA10B514220446002190
:1050DC0000F048FE204610BD10B5104C88B003A857
:1050EC00FFF7F2FF2178BFF35B8F11F0010111D1B3
:1050FC0020460191FEF7CBFF019958B103AA08484D
:10510C00FFF7CAFF2046FEF7C7FF064A06490448C8
:10511C0000F04EF9024808B010BD00BFA8E703200C
:10512C00ACE70320F8E503202D500B00014B186071
:10513C00704700BF94E5032008B50B4B43B1FFF754
:10514C00CBFF03681B699847002801DDAFF3008093
:10515C00064B43B1FFF738FF03681B6998470028DB
:10516C0001DDAFF3008008BD00000000000000006E
:10517C0008B5FFF7E1FFFFF767F9014B186008BDB1
:10518C00D4E703200548064A064908B5121A00F070
:10519C00DBFD054B054A1A6008BD00BF00F4032077
:1051AC0004F4032070600B0000F403201E1C279AEB
:1051BC0007B5002300931A466FF07701FFF75EFAEC
:1051CC0003B05DF804FB000007B543880A2B08D038
:1051DC00502B0BD1094B1B684BB103B05DF804EBA2
:1051EC001847FFF7E5FF03B05DF804FB00230093BD
:1051FC001A466FF07701FFF741FAF4E7C4E7032092
:10520C0010B512480021FFF7CBFA114B1A68114B5D
:10521C009A42114B0CBF012200221A7001D0FFF7E9
:10522C00B1FFFFF709F9044600F0A4FD0B4B13B1D5
:10523C002046AFF3008000210848FFF729FABDE8AB
:10524C00104007480021FFF70FBA00BF39510B007F
:10525C0000F403201E1C279AC0E703200000000066
:10526C00D5510B00232813B502D9002002B010BD74
:10527C00A0F10B03022B1AD8174C2178BFF35B8FCC
:10528C0011F001010BD120460191FEF700FF0199AD
:10529C0028B11248FFF7FEFD2046FEF7FDFE0F4B2E
:1052AC001878FFF749F90028DFD10120DEE7012843
:1052BC0009D800F055F80021007CFFF70DF980F0BB
:1052CC000100C0B2D2E709380128EED8FFF77CFE06
:1052DC00007CFFF769F9F2E7C8E70320CCE703206D
:1052EC00232838B504460D460AD8FF2908D0FFF705
:1052FC00B9FF28B129462046BDE83840FFF7ACB8C5
:10530C0038BD38B504460D46FFF7AEF8FF2810D06F
:10531C00062804D84D2323FA00F0C30709D42046ED
:10532C00FFF7A0FF28B129462046BDE83840FFF71B
:10533C00A3B838BD38B52025142304460360856016
:10534C0005610649284600F03AF804496060284691
:10535C0000F035F8E060204638BD00BFD45F0B008C
:10536C0030B50F4D2978BFF35B8F11F0010487B076
:10537C0013D12846FEF78BFE78B101A8FFF7DAFFB0
:10538C0001AA21460748FFF7F1FA2846FEF784FEEA
:10539C00054A0649034800F00BF8024807B030BD37
:1053AC00D8E70320DCE70320F8E5032021490B00B4
:1053BC000B460146184600F0B9BCFEF766BEFEF778
:1053CC0062BE000081F0004102E000BF83F00043A8
:1053DC0030B54FEA41044FEA430594EA050F08BF84
:1053EC0090EA020F1FBF54EA000C55EA020C7FEA48
:1053FC00645C7FEA655C00F0E2804FEA5454D4EBC5
:10540C005555B8BF6D420CDD2C4480EA020281EA8E
:10541C00030382EA000083EA010180EA020281EAC6
:10542C000303362D88BF30BD11F0004F4FEA013118
:10543C004FF4801C4CEA113102D0404261EB410127
:10544C0013F0004F4FEA03334CEA133302D05242AD
:10545C0063EB430394EA050F00F0A780A4F1010469
:10546C00D5F1200E0DDB02FA0EFC22FA05F28018A3
:10547C0041F1000103FA0EF2801843FA05F3594189
:10548C000EE0A5F120050EF1200E012A03FA0EFC08
:10549C0028BF4CF0020C43FA05F3C01851EBE37132
:1054AC0001F0004507D54FF0000EDCF1000C7EEB4F
:1054BC0000006EEB0101B1F5801F1BD3B1F5001F8D
:1054CC000CD349085FEA30004FEA3C0C04F10104AC
:1054DC004FEA445212F5800F80F09A80BCF1004FD5
:1054EC0008BF5FEA500C50F1000041EB045141EA57
:1054FC00050130BD5FEA4C0C404141EB0101013C20
:10550C0028BFB1F5801FE9D291F0000F04BF01460E
:10551C000020B1FA81F308BF2033A3F10B03B3F1E0
:10552C0020020CDA0C3208DD02F1140CC2F10C0270
:10553C0001FA0CF021FA02F10CE002F11402D8BFCE
:10554C00C2F1200C01FA02F120FA0CFCDCBF41EA9A
:10555C000C019040E41AA2BF01EB0451294330BD69
:10556C006FEA04041F3C1CDA0C340EDC04F1140446
:10557C00C4F1200220FA04F001FA02F340EA03001D
:10558C0021FA04F345EA030130BDC4F10C04C4F163
:10559C00200220FA02F001FA04F340EA0300294643
:1055AC0030BD21FA04F0294630BD94F0000F83F48D
:1055BC00801306BF81F480110134013D4EE77FEA70
:1055CC00645C18BF7FEA655C29D094EA050F08BFBC
:1055DC0090EA020F05D054EA000C04BF194610469D
:1055EC0030BD91EA030F1EBF0021002030BD5FEAE1
:1055FC00545C05D14000494128BF41F0004130BD09
:10560C0014F580043CBF01F5801130BD01F000455C
:10561C0045F0FE4141F470014FF0000030BD7FEACF
:10562C00645C1ABF194610467FEA655C1CBF0B46CA
:10563C00024650EA013406BF52EA033591EA030FE1
:10564C0041F4002130BD00BF90F0000F04BF0021D9
:10565C00704730B54FF4806404F132044FF000050C
:10566C004FF0000150E700BF90F0000F04BF002185
:10567C00704730B54FF4806404F1320410F00045EB
:10568C0048BF40424FF000013EE700BF42004FEAE6
:10569C00E2014FEA31014FEA02701FBF12F07F4363
:1056AC0093F07F4F81F06051704732F07F4208BF1A
:1056BC00704793F07F4F04BF41F40021704730B521
:1056CC004FF4607401F0004521F000411CE700BF6D
:1056DC0050EA010208BF704730B54FF000050AE0F0
:1056EC0050EA010208BF704730B511F0004502D5F1
:1056FC00404261EB41014FF4806404F132045FEAF3
:10570C00915C3FF4D8AE4FF003025FEADC0C18BF9B
:10571C0003325FEADC0C18BF033202EBDC02C2F18D
:10572C00200300FA03FC20FA02F001FA03FE40EA1F
:10573C000E0021FA02F11444BDE600BF70B54FF023
:10574C00FF0C4CF4E06C1CEA11541DBF1CEA135501
:10575C0094EA0C0F95EA0C0F00F0DEF82C4481EA69
:10576C00030621EA4C5123EA4C5350EA013518BF89
:10577C0052EA033541F4801143F4801338D0A0FB76
:10578C0002CE4FF00005E1FB02E506F00042E0FB23
:10579C0003E54FF00006E1FB03569CF0000F18BF29
:1057AC004EF0010EA4F1FF04B6F5007F64F54074D1
:1057BC0004D25FEA4E0E6D4146EB060642EAC62164
:1057CC0041EA55514FEAC52040EA5E504FEACE2ED1
:1057DC00B4F1FD0C88BFBCF5E06F1ED8BEF1004FD4
:1057EC0008BF5FEA500E50F1000041EB045170BD50
:1057FC0006F0004646EA010140EA020081EA030194
:10580C00B4EB5C04C2BFD4EB0C0541EA045170BD8F
:10581C0041F480114FF0000E013C00F3AB8014F109
:10582C00360FDEBF002001F0004170BDC4F1000452
:10583C00203C35DA0C341BDC04F11404C4F12005D3
:10584C0000FA05F320FA04F001FA05F240EA02002E
:10585C0001F0004221F0004110EBD37021FA04F664
:10586C0042EB06015EEA430E08BF20EAD37070BD1E
:10587C00C4F10C04C4F1200500FA04F320FA05F07D
:10588C0001FA04F240EA020001F0004110EBD3707F
:10589C0041F100015EEA430E08BF20EAD37070BDEF
:1058AC00C4F1200500FA05F24EEA020E20FA04F3C8
:1058BC0001FA05F243EA020321FA04F001F0004177
:1058CC0021FA04F220EA020000EBD3705EEA430EE8
:1058DC0008BF20EAD37070BD94F0000F0FD101F017
:1058EC000046400041EB010111F4801F08BF013C50
:1058FC00F7D041EA060195F0000F18BF704703F08E
:10590C000046520043EB030313F4801F08BF013D14
:10591C00F7D043EA0603704794EA0C0F0CEA1355D0
:10592C0018BF95EA0C0F0CD050EA410618BF52EA8A
:10593C004306D1D181EA030101F000414FF0000090
:10594C0070BD50EA410606BF1046194652EA43069E
:10595C0019D094EA0C0F02D150EA013613D195EA12
:10596C000C0F05D152EA03361CBF104619460AD15A
:10597C0081EA030101F0004141F0FE4141F4700164
:10598C004FF0000070BD41F0FE4141F4780170BD54
:10599C0070B54FF0FF0C4CF4E06C1CEA11541DBFB9
:1059AC001CEA135594EA0C0F95EA0C0F00F0A7F8BB
:1059BC00A4EB050481EA030E52EA03354FEA0131E8
:1059CC0000F088804FEA03334FF0805545EA1313FB
:1059DC0043EA12634FEA022245EA111545EA1065C3
:1059EC004FEA00260EF000419D4208BF964244F15A
:1059FC00FD0404F5407402D25B084FEA3202B61A79
:105A0C0065EB03055B084FEA32024FF480104FF44C
:105A1C00002CB6EB020E75EB030E22BFB61A7546C0
:105A2C0040EA0C005B084FEA3202B6EB020E75EB53
:105A3C00030E22BFB61A754640EA5C005B084FEABB
:105A4C003202B6EB020E75EB030E22BFB61A754688
:105A5C0040EA9C005B084FEA3202B6EB020E75EB93
:105A6C00030E22BFB61A754640EADC0055EA060E54
:105A7C0018D04FEA051545EA16754FEA06164FEA97
:105A8C00C30343EA52734FEAC2025FEA1C1CC0D143
:105A9C0011F4801F0BD141EA00014FF000004FF0D0
:105AAC00004CB6E711F4801F04BF01430020B4F191
:105ABC00FD0C88BFBCF5E06F3FF6AFAEB5EB030C49
:105ACC0004BFB6EB020C5FEA500C50F1000041EB46
:105ADC00045170BD0EF0004E4EEA113114EB5C0413
:105AEC00C2BFD4EB0C0541EA045170BD41F48011E6
:105AFC004FF0000E013C90E645EA060E8DE60CEAEE
:105B0C00135594EA0C0F08BF95EA0C0F3FF43BAF0A
:105B1C0094EA0C0F0AD150EA01347FF434AF95EAC1
:105B2C000C0F7FF425AF104619462CE795EA0C0FA5
:105B3C0006D152EA03353FF4FDAE1046194622E772
:105B4C0050EA410618BF52EA43067FF4C5AE50EA4C
:105B5C0041047FF40DAF52EA43057FF4EBAE12E73C
:105B6C004FF0FF3C06E000BF4FF0010C02E000BF1D
:105B7C004FF0010C4DF804CD4FEA410C7FEA6C5C00
:105B8C004FEA430C18BF7FEA6C5C1BD001B050EAA3
:105B9C00410C0CBF52EA430C91EA030F02BF90EA8E
:105BAC00020F0020704710F1000F91EA030F58BF4D
:105BBC00994208BF90422CBFD8176FEAE37040F0AF
:105BCC00010070474FEA410C7FEA6C5C02D150EA4D
:105BDC00013C07D14FEA430C7FEA6C5CD6D152EA08
:105BEC00033CD3D05DF8040B704700BF84461046CD
:105BFC0062468C461946634600E000BF01B5FFF7CC
:105C0C00B7FF002848BF10F1000F01BD4DF808ED9B
:105C1C00FFF7F4FF0CBF012000205DF808FB00BF6C
:105C2C004DF808EDFFF7EAFF34BF012000205DF8C6
:105C3C0008FB00BF4DF808EDFFF7E0FF94BF012013
:105C4C0000205DF808FB00BF4DF808EDFFF7CEFF14
:105C5C0094BF012000205DF808FB00BF4DF808ED53
:105C6C00FFF7C4FF34BF012000205DF808FB00BF24
:105C7C004FEA410C7FEA6C5C02D150EA013C0AD13C
:105C8C004FEA430C7FEA6C5C02D152EA033C02D12E
:105C9C004FF0000070474FF0010070474FEA41028F
:105CAC0012F5001215D211D56FF47873B3EB625262
:105CBC0012D94FEAC12343F0004343EA505311F089
:105CCC00004F23FA02F018BF404270474FF000001B
:105CDC00704750EA013005D111F0004008BF6FF059
:105CEC00004070474FF00000704700BF4A0011D2CF
:105CFC0012F5001211D20DD56FF47873B3EB62521A
:105D0C000ED44FEAC12343F0004343EA505323FA25
:105D1C0002F070474FF00000704750EA013002D19A
:105D2C004FF0FF3070474FF00000704710B5054C36
:105D3C0013462CB10A4601460220AFF3008010BD79
:105D4C002046FCE7000000000A44914200F1FF33BA
:105D5C0000D1704710B511F8014B03F8014F914277
:105D6C00F9D110BD02440346934200D1704703F8A9
:105D7C00011BF9E738B5104B1D68AB6B0446B3B982
:105D8C001820FEF7EDFC0246A86320B90B4B0C481B
:105D9C004221FEF7FDFC0B490B4BC0E900130B4BEA
:105DAC0083600B23838100210120C2E90401AB6BCA
:105DBC0000221C615A6138BD94E50320D55F0B00AD
:105DCC00EC5F0B000E33CDAB34126DE6ECDE050050
:105DDC00034613F8012B002AFBD1181A013870471F
:105DEC001D400B0059400B0081400B0085400B00FF
:105DFC00000000000000000000000000AB400B00A1
:105E0C00AD400B0025635B313B304800566F6C7422
:105E1C006167653A20202000560043757272656EEA
:105E2C00743A202020004100506F7765723A202090
:105E3C002020200057004672657175656E63793AB3
:105E4C002000487A00000000000000000000000064
:105E5C006B480B0061480B0057480B000D480B00BA
:105E6C004B480B003F480B00DD4A0B00E54A0B008A
:105E7C0033480B002B480B0021480B0017480B0034
:105E8C00154B0B00000000000000000003490B0044
:105E9C00F9480B00EF480B00E5480B00D9480B0004
:105EAC00CD480B00DD4A0B00E54A0B00C1480B0046
:105EBC00B9480B00AF480B00A5480B00154B0B0065
:105ECC00000000000000000021490B006B490B0092
:105EDC0043490B0023490B004B490B0053490B0062
:105EEC005B490B0063490B00000000000000000040
:105EFC00AD490B009D490B009F490B006170700070
:105F0C0000000000000000009D4A0B00A74A0B0097
:105F1C00B14A0B00BB4A0B00C54A0B00D14A0B001F
:105F2C00DD4A0B00E54A0B00ED4A0B00F94A0B0069
:105F3C00014B0B000B4B0B00154B0B006E616E00F5
:105F4C00696E66006F7666002E0025592D256D2D25
:105F5C0025645425483A254D3A2553257A0061731A
:105F6C006374696D65000000000000000000000013
:105F7C00254F0B00914F0B00694F0B00014C0B0090
:105F8C00394F0B00554F0B00474F0B00634F0B0065
:105F9C00274F0B002B4F0B000000000000000000EF
:105FAC002D500B0095500B006B500B00014C0B004F
:105FBC005D500B002F500B003F500B008F500B000F
:105FCC004F500B0029500B00005245454E54206D8C
:105FDC00616C6C6F632073756363656564656400E5
:105FEC002F746D702F6A656E6B696E732D4743430A
:105FFC002D31302D706970656C696E652D34385F8C
:10600C0032303230313132345F3136303631383033
:10601C003633392F7372632F6E65776C69622F6E0E
:10602C0065776C69622F6C6962632F7374646C6939
:10603C00622F72616E642E6300000000E9430B0056
:10604C00E5470B0075480B000D490B008D4A0B0002
:10605C00ED4B0B00854E0B00D54E0B00114F0B007A
:04606C000000000030
:04607000000000002C
:106074006A5F0B0098E503200000000000000000A8
:10608400000000000000000000000000000000000C
:1060940000000000000000000000000000000000FC
:1060A40000000000000000000000000000000000EC
:1060B40000000000000000000000000000000000DC
:1060C40000000000000000000000000000000000CC
:0860D4000000000000000000C4
:1060DC00FFFFFFFF00000102030405060708090A81
:1060EC000B0C0D0E0F101112131415161718191A7C
:0860FC001B1C1D1E1F202800C3
:046104007856341283
:04000003B000401CED
:00000001FF
